:020000040800F2
:10000000004000208D86000821810008238100081F
:1000100000000000000000000000000000000000E0
:100020000000000000000000000000002581000822
:10003000000000000000000027810008298100085E
:10004000DD860008DD860008DD860008DD86000804
:10005000DD860008DD860008DD86000831810008A5
:10006000DD86000849810008DD8600085981000806
:1000700069810008DD860008DD860008DD8600084D
:10008000DD860008DD860008DD860008DD860008C4
:10009000DD860008DD860008DD860008DD860008B4
:1000A000DD860008DD860008DD860008DD860008A4
:1000B00079810008DD860008DD8600088981000856
:1000C00010B5064C2378002B07D1054B002B02D02E
:1000D000044800E000BF0123237010BD700300201E
:1000E0000000000074910008044B10B5002B03D0F1
:1000F0000349044800E000BF10BDC04600000000F6
:100100007403002074910008002243088B4274D3CA
:1001100003098B425FD3030A8B4244D3030B8B4208
:1001200028D3030C8B420DD3FF22090212BA030C11
:100130008B4202D31212090265D0030B8B4219D3F2
:1001400000E0090AC30B8B4201D3CB03C01A524112
:10015000830B8B4201D38B03C01A5241430B8B425A
:1001600001D34B03C01A5241030B8B4201D30B0343
:10017000C01A5241C30A8B4201D3CB02C01A52416A
:10018000830A8B4201D38B02C01A5241430A8B422D
:1001900001D34B02C01A5241030A8B4201D30B0216
:1001A000C01A5241CDD2C3098B4201D3CB01C01A30
:1001B000524183098B4201D38B01C01A524143093A
:1001C0008B4201D34B01C01A524103098B4201D328
:1001D0000B01C01A5241C3088B4201D3CB00C01A95
:1001E000524183088B4201D38B00C01A524143080D
:1001F0008B4201D34B00C01A5241411A00D2014632
:10020000524110467047FFE701B5002000F0F0F8BA
:1002100002BDC0460029F7D076E7704703460B437E
:100220007FD4002243088B4274D303098B425FD3EF
:10023000030A8B4244D3030B8B4228D3030C8B421B
:100240000DD3FF22090212BA030C8B4202D3121201
:10025000090265D0030B8B4219D300E0090AC30BD6
:100260008B4201D3CB03C01A5241830B8B4201D383
:100270008B03C01A5241430B8B4201D34B03C01A6C
:100280005241030B8B4201D30B03C01A5241C30AE4
:100290008B4201D3CB02C01A5241830A8B4201D355
:1002A0008B02C01A5241430A8B4201D34B02C01A3F
:1002B0005241030A8B4201D30B02C01A5241CDD2E4
:1002C000C3098B4201D3CB01C01A524183098B422F
:1002D00001D38B01C01A524143098B4201D34B0118
:1002E000C01A524103098B4201D30B01C01A52417B
:1002F000C3088B4201D3CB00C01A524183088B4202
:1003000001D38B00C01A524143088B4201D34B00EA
:10031000C01A5241411A00D201465241104670475C
:100320005DE0CA0F00D04942031000D34042534061
:1003300000229C4603098B422DD3030A8B4212D321
:10034000FC22890112BA030A8B420CD38901921153
:100350008B4208D3890192118B4204D389013AD090
:10036000921100E08909C3098B4201D3CB01C01A65
:10037000524183098B4201D38B01C01A5241430978
:100380008B4201D34B01C01A524103098B4201D366
:100390000B01C01A5241C3088B4201D3CB00C01AD3
:1003A000524183088B4201D38B00C01A5241D9D2EB
:1003B00043088B4201D34B00C01A5241411A00D26C
:1003C0000146634652415B10104601D34042002B68
:1003D00000D54942704763465B1000D3404201B5E7
:1003E000002000F005F802BD0029F8D016E770479C
:1003F0007047C0468446081C6146FFE71FB500F001
:1004000055FB002801D40021C8421FBD10B500F0E3
:10041000D7FA4042013010BD10B500F047FB00286C
:1004200001DB002010BD012010BDC04610B500F05A
:100430003DFB002801DD002010BD012010BDC0469D
:1004400010B500F0E5FA002801DC002010BD012005
:1004500010BDC04610B500F0DBFA002801DA00201C
:1004600010BD012010BDC046F8B54746CE46430238
:100470005B0A4400C20F9C464800DD004B02240E7C
:100480005B0A000E80B5984626009146C90FDB0036
:10049000271A8A4229D0002F15DD00284AD1002BC7
:1004A00000D095E0ED08FF2C00D188E06B025B0ADC
:1004B000E6B25B02F605580A3043D20710430CBC83
:1004C00090469946F8BD002F00D087E0601CC0B26E
:1004D000012800DCB6E0EE1A720100D5C5E0002E5E
:1004E0003DD1002200260023E3E7002F00DC96E048
:1004F00000285DD0FF2C60D08022D20413431B2F34
:1005000000DDECE02022D21B18009340F8405A1E78
:1005100093410343ED186B017BD50134FF2C00D1CF
:10052000B7E0012207262A406B089A4D1D4015436B
:100530002E4029E0FF2CB5D08022D20413431B2F7C
:1005400000DDB2E02022D21B19009340F9405A1E70
:1005500093410B43ED1A6B015BD5AD01AE09300041
:1005600000F094FE05388640844265DC041B3300AD
:1005700020200134E340041BA640751EAE413343E6
:1005800007261D0000241E4001224B461A40002E63
:1005900004D00F232B40042B00D004356B0100D472
:1005A00080E70134E6B2FF2C2FD1FF26002380E73D
:1005B000002B52D1FF2C00D074E70A00ED08002D6B
:1005C000F3D08023DB032B435B025B0AFF2670E73B
:1005D000013F002FBED0FF2CB1D163E7002C47D0E4
:1005E000FF2869D08024E4047A4225431B2A00DDD9
:1005F000C5E02C002026D440B21A95406A1E9541D1
:1006000025435D1B04008946A5E7AB015B0A50E763
:10061000002401224B461A406B07BAD142E7002F53
:100620003BD10134E0B201284ADDFF2CBDD00726C2
:10063000ED186D082E40A7E70723574D241A3540C3
:100640001E40A1E7002C1BD1002D6ED1002B00D144
:100650009AE00A001D003C0024E7013F002F00D172
:1006600058E7FF2C00D04AE7A7E75E1B894676E7EC
:10067000002D1CD10A00FF281FD004001D0011E727
:10068000002D5DD1002B17D180230022DB03FF2634
:100690000FE70A00FF2600230BE7002C21D1002DD5
:1006A00066D1FF28E9D11D0087E7012352E77A1CB4
:1006B000A7D0FA43FF2899D10A001D00FF24F1E6D4
:1006C000002E21D1002D4FD0002B4CD0ED186B0106
:1006D0009ED5314B07362E4001241D4054E701239F
:1006E00018E7FF28DFD08024E4047F4225431B2F36
:1006F0004DDC2026F61B2C00B540FC406A1E9541BF
:100700002543ED18040006E7002DCCD0002B00D1C6
:1007100053E780216046C903084203D0404608429F
:1007200000D11D000121114047E7002B00D1B9E69F
:10073000EA1A500125D507265D1B2E40894623E77E
:10074000FF24002B00D1ADE680226046D203104288
:1007500004D04046104201D11D00894601224B467B
:10076000FF241A409EE62B00DD080A0000249DE6C7
:100770007A1CC6D0FF43FF28B9D11D001DE7012513
:100780003FE7151E00D044E70022002391E6012533
:10079000B7E7C046FFFFFF7DFFFFFFFBF8B55746F9
:1007A0004E464546DE464402E0B546008846640AA9
:1007B000360EC70F002E63D0FF2E24D08023E40016
:1007C000DB041C43002399469B467F3E434642463A
:1007D0005D02D20F5B006D0A1B0E9046924665D0FB
:1007E000FF2B55D080220021ED00D2047F3B154322
:1007F000F61A43464A467B400F2A00D98DE06D48E1
:10080000920082589746002C54D108239946063B03
:10081000FF269B46DAE70025534602291BD0032911
:1008200000D1BFE0012928D030007F30002820DD32
:100830006A0704D00F222A40042A00D004352A0176
:1008400003D530005C4A80301540FE2803DCAC0143
:10085000640AC2B201E0FF2200246402D205600AE9
:10086000DB07104318433CBC90469946A246AB4672
:10087000F8BD0122101A1B287CDD00220024ECE7C1
:10088000002C1DD104239946033B00269B469DE77F
:10089000FF3E002D20D1022143464A467B400A43B9
:1008A0000F2AD8D84548920082589746002D19D172
:1008B0000121F1E70C239946093BFF269B4685E77A
:1008C000200000F0E3FC7626431F9C400023764284
:1008D000361A99469B4679E74A4603231A439146BE
:1008E000032186E7280000F0D1FC431F36189D4005
:1008F000763600217DE780240023E403FF22ACE765
:1009000000258023DB031C4228D01D4226D12B4327
:100910005C02640A4346FF229FE762016C01A24227
:1009200024D21B210025013E012710006D0052003A
:10093000002801DB944201D8121B3D4301390029F4
:10094000F3D11400621E944125436DE7BA4659461F
:1009500025005346022900D061E77CE78023DB03B2
:100960001C436402640A3B00FF2276E7121B1A2133
:100970000125D9E79E362A00B5402C00C240651EED
:10098000AC411443620704D00F222240042A00D055
:100990000434620103D4A401640A00225DE7012249
:1009A00000245AE78024E4032C436402640AFF22F3
:1009B00053E7C0464C920008FFFFFFF78C920008F7
:1009C00070B542004E024C0045026D0A120EC30F74
:1009D000760A240EC90FFF2A0FD0FF2C11D0012058
:1009E000A24200D070BDB542FCD18B420DD0002A8E
:1009F000F8D12800451EA841F4E70120002DF1D1CF
:100A0000EBE70120002EEDD1E9E70020EAE7C04640
:100A100070B54A004E02450244006D0A240EC30F11
:100A2000760A120EC90FFF2C15D0FF2A0ED0002C0B
:100A300015D1002A01D1002E1CD0002D14D08B42DC
:100A400027D00220013B1840013870BD002EEED0A7
:100A500002204042F9E7002DFAD1FF2A0ED0002AE9
:100A60000ED1002EEDD00BE001230139994308008F
:100A70000130EAE70020002DE7D0E2E7002EE7D1C1
:100A80008B42DED1944205DD0221581E0840013818
:100A9000DBE70024A24204DCB542D2D80020B542F4
:100AA000D3D2581E012398430130CEE730B542001F
:100AB00044024D02C30F4800640A120E6D0A000E74
:100AC000C90FFF2A12D0FF280CD0002A12D100280B
:100AD00019D1002D17D1002C2BD00220013B18403A
:100AE000013826E0002DF0D0022022E0002CFBD1BE
:100AF000FF281FD000281FD1002D1DD10220013B4F
:100B00001840013815E0002C0ED08B42E5D10022B0
:100B1000904204DCAC42E0D80020AC4209D2581E1E
:100B200001239843013004E001230139994308006F
:100B3000013030BD002DD7D18B42CED18242E7DDCE
:100B40000221581E08400138F3E7C046F0B54E4672
:100B500057464546DE46E0B543025B0A450083B092
:100B60000F1C99462D0EC60F002D57D0FF2D24D0F7
:100B70008020DB00C0041843002381469A469B4630
:100B80007F3D7C027A00FB0F640A120E984623D048
:100B9000FF2A4BD0E30080240020E4047F3A1C436A
:100BA000AD186B1C47460193534677403A000F2B14
:100BB00048D87D499B00CB589F46002B00D085E04C
:100BC00008339A46063B9B467C027A00FB0FFF25C2
:100BD000640A120E9846DBD1002C00D090E05246F9
:100BE00001231A4392460120DBE74C465846170082
:100BF000022824D0032800D1CFE0002200230128BE
:100C00004DD15802D205400AFF071043384303B0C4
:100C10003CBC90469946A246AB46F0BD002B5BD14A
:100C200004239A46033B00259B46AAE7FF35002C88
:100C300060D1524602231A4392460220B1E7FF22B6
:100C40000023DEE74B461B0C9C464B462604360C25
:100C5000180461463300220C6446000C43434E43A3
:100C60005043544380191A0C1218964203D980211C
:100C700049028C4664441B041B0C1004C0188301F9
:100C80005E1EB341800E1843130C1B199B010343D6
:100C90001C00230179D5012362081C401443019AEA
:100CA0007F32002A4DDD630704D00F232340042B3D
:100CB00000D00434230103D53C4B019A1C40803200
:100CC000FE2ABCDCA3015B0AD2B29AE70C239A4647
:100CD000093BFF259B4654E7180000F0D7FA4A4627
:100CE000431F76259A4000236D4291462D1A9A465D
:100CF0009B4646E7524603231A439246032050E799
:100D0000200000F0C3FA431F2D1A9C40763D0020BE
:100D100047E780230027DB03FF2272E7424666E7AE
:100D20004C463200584662E780234A46DB031A42AB
:100D300022D01C4220D123435B025B0A4746FF229C
:100D40005FE701239A1A1B2A21DC23000199D34073
:100D50009E318C401A0023005C1EA34113435A07A6
:100D600004D00F221A40042A00D004335A0111D4AF
:100D70009B015B0A002244E780234A46DB031343BE
:100D80005B025B0A3700FF223BE7019587E7002201
:100D9000002336E70122002333E78023DB032343CC
:100DA0005B025B0AFF222CE7CC920008FFFFFFF7F3
:100DB000F8B54746CE464400C20F80B54702480208
:100DC000400A8446664648007F0A240EF600250045
:100DD0009046FB00000EC90FB146FF2800D185E008
:100DE00001267140261A914257D0002E43DD00287B
:100DF00000D07FE04946002900D1AAE0013E002E44
:100E000000D0F7E05B1A5A0100D48BE09B019C09EB
:100E1000200000F03BFA05388440854200DDD3E035
:100E2000451B230020200135EB40451BAC40621ED2
:100E300094412343072400251C40012241460A40D7
:100E4000002C04D00F211940042900D0043359018B
:100E500000D480E00135ECB2FF2D00D0A3E0FF24E8
:100E600000235B02E405580AD207204310430CBC60
:100E700090469946F8BD002E74D1601CC0B201287E
:100E800000DCA7E04A469C1A620100D5B6E0002CBF
:100E9000BED1002200240023E3E7002E00DC85E021
:100EA000002846D0FF2C49D080224846D204104367
:100EB000814601221B2E09DC20204C46801B8440E9
:100EC0004A462000F240441EA04102439B185A01AA
:100ED00028D50135FF2D00D1A8E00122072494492F
:100EE0001A405B080B4013431C40A6E7002E00D0BD
:100EF00078E775E7FF2C54D080224946D20411438D
:100F0000894601221B2E09DC20214846891B884086
:100F10004A460100F240481E81410A439B1A5A0189
:100F200000D573E7012241460A40590700D089E7FE
:100F300011E04846002858D1FF2C0CD1DB08002BCB
:100F400000D18CE78020C00303435B025B0AFF24CF
:100F500087E7FF2C25D0DB08FF2DF0D05B025B0A72
:100F6000ECB27EE7002C4DD0FF2818D08024E4049A
:100F7000724223431B2A00DDC4E01C002025D4401C
:100F8000AA1A93405A1E934123434A460500D31A96
:100F9000884638E7721CF8D0F243FF28EAD10A00ED
:100FA0004B46FF25D7E79B015B0A5AE7002E41D14C
:100FB000651CE9B2012945DDFF2D00D14FE707246B
:100FC0004B445B081C4038E707225A4B2D1A23403C
:100FD000144032E7002C1DD1002B7AD14B46002B58
:100FE00000D191E00A000025B5E7013E002E19D19D
:100FF0004B446CE7FF2C84D1FF25ACE74A4688467A
:10100000D41A05E7002BC5D10A00FF28C8D0050077
:101010004B46A0E7002B49D14B46002B77D00A0066
:10102000FF2598E7FF2C00D043E787E70A00FF245D
:10103000002316E7002C15D1002B57D1FF28E6D14D
:101040004B467BE7002C20D1002B57D04946002986
:1010500053D04B445A0168D50724364A1C40012519
:101060001340EAE6FF28EBD08022D20476421343F5
:101070001B2E53DC2025AD1B1A00AB40F2405C1E3A
:10108000A34113434B44050021E7002BD8D0494628
:10109000002900D152E78021C9030F4200D14DE75A
:1010A0006046084200D049E74B4647E74846FF25DF
:1010B000002800D14FE78022D203174204D06046B7
:1010C000104201D14B46884601224146FF250A4085
:1010D00041E7484600281FD01A1A500120D54A4639
:1010E0000724D31A1C4088460025A6E6741CC9D0E4
:1010F000F643FF28BCD14B4620E799464B460025D6
:10110000DB082BE7012340E700220023A9E6802328
:101110000022DB03FF24A4E600251CE70123B1E73E
:10112000002AF1D013000025FCE60025FAE6C046AF
:10113000FFFFFF7DFFFFFFFB41024200C30F490A93
:10114000120E00207E2A0DD99D2A0CD88020000482
:101150000143952A0ADC9620821AD1404842002B8E
:1011600000D108007047034A9818FBE7963A91406F
:10117000F4E7C046FFFFFF7F70B500283DD0C317DE
:10118000C5185D40C40F280000F080F89E22121A96
:10119000962A07DCD2B2082833DD08388540680279
:1011A000400A23E0992A0BDD052329001B1AD940A8
:1011B00003001B339D402B005D1EAB4119430D0006
:1011C000052801DD431F9D402B000F490B406E0792
:1011D00009D00F263540042D05D004335D0102D51A
:1011E0009F220B40121A9B01580AD2B24002D2052C
:1011F000400AE4071043204370BD00240022002071
:10120000F4E76802400AF1E7FFFFFFFB70B5041E38
:1012100034D000F03BF89E22121A962A07DCD2B294
:1012200008282EDD083884406002400A21E0992A0F
:1012300009DD030021001B3399404B1E9941052312
:101240001B1ADC400C43052801DD431F9C40230092
:101250000D490B40650709D00F252C40042C05D003
:1012600004335C0102D59F220B40121A9B01580ADD
:10127000D2B24002D205400A104370BD00220020C5
:10128000F7E76002400AF4E7FFFFFFFB1C210123A0
:101290001B04984201D3000C10391B0A984201D359
:1012A000000A08391B09984201D30009043902A237
:1012B000105C40187047C04604030202010101019E
:1012C000000000000000000010B5040002F0A2FBC6
:1012D000FA218900FEF718FF00F014FB012000221C
:1012E0002100404200F0D0FA002010BD10B5064A9F
:1012F000136810210B4313600020FFF7E5FF06F091
:10130000A3FC002010BDC04600200240014B18681D
:101310007047C046C005002070B582B004000023AD
:1013200001930368996803220A40012A2DD0996825
:10133000204A114231D19A6801210A439A601E4B1A
:1013400018681E49FEF7E0FE0190019B002B05D0B6
:10135000019B013B0193019B002BF9D1FFF7D6FFC5
:101360000600012523681B681D4221D1FFF7CEFF2F
:10137000801B0228F6D9636C102213436364A36CAC
:101380000F3A1343A364012010E01A680020D2072B
:101390000CD4DA681204CAD508E0636C1022134337
:1013A0006364A36C0F3A1343A364012002B070BDC1
:1013B0000020FBE7170000803801002040420F00AA
:1013C00070B5041E00D1A4E0436C002B73D0636C95
:1013D000DB0600D597E0226893680421194000D00D
:1013E00091E0636C4C4803400630FF300343636474
:1013F000906803230340012B63D0D36818208343F4
:10140000A0680343D360226813699B009B0860684F
:10141000034313612268D36840480340D360A36943
:101420009A03E369DB031A43206A4503636B0E00EA
:10143000012B01D080267601E3681A432A432369F1
:10144000022B45D0236B5B00134333430B43626A8B
:10145000012A3FD0A26AC221FF318A4202D0E16A4A
:101460000A4313432168CA681A43CA60A26B8021E9
:1014700049058A4202D0013A062A0AD82068416901
:1014800007229143416121684869A56B2A400243C4
:101490004A612268D26822490A409A4229D0636C84
:1014A00012229343023A13436364A36C0F3A13432B
:1014B000A36401202CE083644022835406F0DCFB0B
:1014C00085E71368DB07A5D4D3681B04A2D494E78F
:1014D0000421B7E7002803D1802252021343B9E761
:1014E000626C20210A436264A26C1F390A43A26421
:1014F000B0E70023A364636C03229343023A1343CF
:101500006364002004E0636C1022134363640120D1
:1015100070BD0120FCE7C046FDFEFFFF1902FEFF83
:10152000E7FF3F8370B504000D00160003689B6859
:101530005B073CD44023C35C012B3AD040230122FB
:10154000C254C369012B03D0FFF7E6FE00282DD15A
:10155000636C194A1A4080235B00134363640023C1
:10156000A3644022A354E36B144A9A62E36B144AC7
:10157000DA62E36B134A1A6323681C221A6022683A
:10158000536810210B4353602268D3680F390B4313
:10159000D3602168403133002A00E06B00F008FA84
:1015A0002268936804210B439360002070BD0220E1
:1015B000FCE70220FAE7C046FEF0FFFFC91500086D
:1015C0003B1600084916000810B5436A5A6C5021B2
:1015D000114203D0DB6B1B6B984710BD596C802206
:1015E00092000A435A641A68D068C021090108426F
:1015F00013D1196A002910D1116809070DD5916816
:1016000049070ED451680C20814351605A6C094936
:101610000A400431FF310A435A64180005F054F8B7
:10162000DBE75A6C20210A435A649A6C1F390A433B
:101630009A64F2E7FEFEFFFF704710B5406AFFF7BD
:10164000FBFF10BD7047704710B5406A436C4022E5
:1016500013434364836C3C3A13438364FFF7F3FF03
:1016600010BD000010B5040003681A68520702D5C7
:101670005A68520705D41A68120729D55A68120702
:1016800026D5626CD20604D4616C802292000A4393
:101690006264D968C0221201114213D1226A002A61
:1016A00010D11A6812070DD59A68520731D45A68BA
:1016B0000C218A435A60636C204A13400432FF3283
:1016C00013436364200004F0FFFF23680C221A60B8
:1016D00023681A68120602D55B681B0622D42368A9
:1016E0001A68D20614D55A68D20611D5626B012A3F
:1016F00002D0DA68D20708D5A26C02210A43A2649C
:1017000010221A602000FFF79EFF236810221A6043
:1017100010BD636C202213436364A36C1F3A134310
:10172000A364CFE7626C80235B02134363642000F1
:10173000FFF788FF236880221A60D0E7FEFEFFFFD4
:1017400030B583B00400002301934033C35C012B08
:1017500000D188E040230122C25403689A685207EE
:1017600075D4424A4868904250D0986A01220D6868
:10177000AA4002439A62A36B80225205934213D07F
:10178000013B062B10D92268506907230340886863
:10179000984209D0506907239843506122685069E4
:1017A0008D682B40034353610B681A00103A0020E8
:1017B000022A51D82E4A1068102B24D0113B5A42CD
:1017C0005A4153422B4A13408022520494466344A8
:1017D0000343274A13600B680020102B3CD1264B93
:1017E00018682649FEF790FC830018184000019005
:1017F000019B002B35D0019B013B0193019B002BEA
:10180000F9D1002028E080231B04E1E79A6A012037
:101810000D68A84082439A620B681A00103A0020B3
:10182000022A19D8124A1168102B0ED0113B5A42C5
:101830005A415242C0231B041340114A9446634448
:101840000B400B4A1360002006E00E4BF8E7436C98
:10185000202213434364012040230022E25403B0BA
:1018600030BD0020F8E70220F9E7C0460110000073
:1018700008270140000040FF3801002040420F00CF
:10188000FFFFFFFEFFFF7FFF70B5002814DB83081A
:101890009B00154A94466344C026B6009D59032414
:1018A0002040C000FF2214008440A54389010A4063
:1018B00082402A439A5170BDC0B20F230340083BB7
:1018C0009B089B00094A94466344DD69032210404B
:1018D000C000FF2422008240954389010C408440CF
:1018E0002C43DC61E7E7C04600E100E000ED00E0EA
:1018F0001F2318401E3B8340014A13607047C046B7
:1019000000E100E0431E0A4A012093420ED8094A32
:1019100053600948036A1B021B0AC02109060B43D6
:101920000362002393600733136000207047C046B2
:10193000FFFFFF0010E000E000ED00E070B50400E4
:101940000120002C2CD021250223635521680B682F
:10195000144A1A406368A0680343E068034320699F
:10196000034360690343A0690343E06903431343EE
:101970000B6023680C4A9446634418001421FEF758
:10198000C3FB80002064094BE3630023A362E3628E
:1019900023636363A363012262551F32A3540020B3
:1019A00070BDC0460FC0FFFFF8FFFDBF0000024042
:1019B00070B52024045D012C41D02024012505555B
:1019C0000134045D012C04D020230022C2540220E3
:1019D00070BD2034013505550024846306683568E0
:1019E0000134A5433560C56B066CB4406C60046877
:1019F00063604368102B12D0036899600368DA6053
:101A0000C36A002B10D0026813680E210B431360C9
:101A10000268136801210B4313600020D8E70368B4
:101A20009A600368D960EBE7026813680A210B43E8
:101A300013600268136806398B431360E8E70220DD
:101A4000C6E710B52123C35C022B03D004238363B4
:101A5000012010BD026813680E218B4313600168DA
:101A60000A6801239A430A60C26B1900046CA14002
:101A70005160212283541F330022C254436B002B38
:101A800002D098470020E4E70020E2E770B5C36B7E
:101A90001A6804682568016C04238B401A4212D02E
:101AA0006B0710D523689B0603D423680422934355
:101AB0002360C26B0423016C8B405360C36A002B0C
:101AC00000D0984770BD02238B401A4218D0AB0754
:101AD00016D523689B0606D423680A229343236005
:101AE0002123093AC254C26B0223016C8B4053601C
:101AF00020230022C254836A002BE3D09847E1E7F9
:101B000008238B401A42DDD02B07DBD523680E2239
:101B100093432360C26B01231900046CA140516000
:101B20008363212283541F330022C254036B002B92
:101B3000C8D09847C6E700000C4BDA680023D206ED
:101B400005D50B4AD36902210B43D3611023074A01
:101B5000D268520706D50649CA6901200243CA6104
:101B600004221343014AD3607047C046002002405C
:101B7000C8050020054B1B6901201B0605D5034B3A
:101B8000034A5A60034A5A6000207047002002400E
:101B900023016745AB89EFCD034A136980210B43CD
:101BA000136100207047C04600200240F8B50400D1
:101BB000FFF7ACFB0700134E0125F3681D420AD066
:101BC000631CFAD0002C1AD0FFF7A0FBC01BA04268
:101BD000F3D9032012E00B4BDB689B0602D5094BBF
:101BE0002022DA60074BDB68DB0604D4054BDB6898
:101BF00000205B0702D5FFF79FFF0120F8BD0320FF
:101C0000FCE7C04600200240F0B5DE4657464E468F
:101C10004546E0B583B004000E00019299462A4B78
:101C20001B7E012B4BD0284B01221A762748FFF749
:101C3000BDFF002839D1012C43D0023C63425C41F6
:101C4000644201239C43A04603339C46E0440025A4
:101C50001D4B9B4600239A461D4C1EE02022D21AA3
:101C6000494691400A000199D9400B0013439BB2A9
:101C70005A465146D161226901273A432261338095
:101C80001248FFF793FF2369BB43236100280CD15F
:101C900001350236EBB2984507D92B01202252427A
:101CA0009A18DBD44B46D340E1E7074B00221A7663
:101CB00003B03CBC90469946A246AB46F0BD02201C
:101CC000F6E701239846C2E7C805002050C300008C
:101CD00000200240064B0022DA61064B1A690421FB
:101CE0000A431A611A693C310A431A617047C046B7
:101CF000C805002000200240064B0022DA61064B96
:101D00001A6902210A431A6158611A693E310A436D
:101D10001A617047C805002000200240F0B5C64691
:101D200000B5060088462A4B1B7E012B4DD0284B60
:101D300001221A760368012B29D02648FFF736FFC7
:101D40000122002829D101235B42424613607468B6
:101D5000B368DB021B199C4235D21F4F02252000BD
:101D6000FFF7CAFF1B48FFF721FF02003B69AB43A7
:101D70003B61002824D180231B019C466444B36846
:101D8000DB0271688C466344A342E8D805E0114841
:101D9000FFF70CFF0122002806D00D4B0021197619
:101DA000100004BC9046F0BDFFF794FF0948FFF710
:101DB000FDFE020008490B69042083430B61ECE738
:101DC00043461C60E9E70122E7E70222E8E7C04654
:101DD000C805002050C3000000200240F0B5DE46D8
:101DE00057464E464546E0B585B00A68002A00D100
:101DF000BDE00024012398460F339A460D3B9946D7
:101E000080235B059B465D4BC3185D1EAB410433CD
:101E100001933AE0E3089B00C3181F6A0725254099
:101E2000AD000F22AA4097430A69AA4015003D431E
:101E30001D6234E00025B5403D439D60504B1B685A
:101E4000009AD5434A68D20300D584E02B404C4E1B
:101E5000336073684A68920300D57FE02B40484E98
:101E60007360B3684A68D2027BD42B40444EB3609F
:101E7000F3684A68920277D42B401A00404BDA602C
:101E800001340A681300E34071D04646A640324050
:101E90000092F5D04B685546AB43022BBAD003688D
:101EA00067004D46BD40ED432B409C464B684A467B
:101EB0001340BB406246134303604B685246934352
:101EC000013B012B11D883682B409C46CB68BB405B
:101ED0006246134383604368B3431E004B681B098B
:101EE00042461340A34033434360C3682B408D6890
:101EF000BD401D43C5604B685A461342C0D0214BBC
:101F00009D69424615439D619B6913400393039B62
:101F1000A3089B001C4A944663449D684E46264095
:101F2000B6000F27B740BD432F009025ED05A8420E
:101F300000D17FE7154DA84207D0154DA84206D025
:101F4000144DA84205D0019D75E7454673E702256B
:101F500071E74D466FE7009A134378E7009A134301
:101F60007DE7009A134381E7009A1A4386E705B09C
:101F70003CBC90469946A246AB46F0BD00F0FFB788
:101F8000000401400010024000000140000400482D
:101F900000080048000C004800690840411E8841C4
:101FA000C0B27047002A01D1816270478161FCE7AD
:101FB00010B5054B5B69184200D110BD024B58614A
:101FC00004F080FAF9E7C0460004014070B5041E31
:101FD00049D0EA23FF33C35C002B3DD0EA23FF3313
:101FE0000322E254606800281DD02300283300211A
:101FF000012500225D701970DA70DA601A615A6189
:1020000001311C338142F5D123000933FF33002015
:1020100000225A701870DA70DA601A615A61013061
:102020001C338842F5D1402301222168CA52002284
:102030002168CA524421206842520C312068425221
:102040000A4A2168CA5200221C3BE2540122EA23B8
:10205000FF33E254002070BDE933FF330022C25445
:1020600006F046F9BAE70120F5E7C04600BFFFFFDA
:10207000016858228B5A8020000203438B520020B3
:102080007047F4235B00C35C012B13D0F4235B0087
:102090000122C25400290AD19D3BFF3B7F320168D7
:1020A000CA52F4235B000022C2540020704724234C
:1020B000C154F6E70220F9E770B54DB2002D65DB9B
:1020C0007F260E40F400A41BA4000934FF34041939
:1020D0007F2631402170ED0F6570E260E370F423DC
:1020E0005B00C35C012B00D174E1F4235B0001228F
:1020F000C254E378012B00D174E0002B4ED0022BA8
:1021000059D0032B61D02578AA0003689C4662440D
:102110001388B1490B40B14929430B431380A37A7B
:10212000002B00D0B4E06378002B00D167E0026898
:102130005023D35A2178C90052189B188022D2000C
:1021400094466344A28801218A431A8023789B0025
:102150000268944663441A88510604D59E490A4091
:102160009F490A431A802278920003689C46624481
:1021700013889C490B4020214B4098490B43138006
:10218000F4235B000022C254002070BD7F260E4065
:10219000F400A41BA4002834041999E723789B00B9
:1021A0000268944663441A888F4911408022920045
:1021B0000A431A80A7E723789B0002689446634489
:1021C0001A8889490A401A809DE723789B00026893
:1021D000944663441A8884491140C022D2000A43BD
:1021E0001A8090E723789B000268944663441A881B
:1021F0007D4911408022D2000A431A8083E7026899
:102200005025535B2178C90052189B18774A944691
:102210006344A28801218A431A8003685A5B2178AB
:10222000C900521872498C466344D318E2683E2AAA
:1022300025D9510989B2D20601D1013989B2890261
:102240006C4A1143198023789B00026894466344CA
:102250001A88510404D560490A4067490A431A8024
:1022600023789B000268944663441988634A1140AE
:10227000C02292015140594A0A431A8080E751080E
:1022800089B2D20701D5013189B289021980DAE712
:1022900023789B000268944663441A885849114089
:1022A000584A0A431A8002685026935B2178C90075
:1022B00052189B188022D20094466344E28801257C
:1022C000AA431A800268935B2178C90052189B18B0
:1022D000464A944663442289AA431A806378002BB5
:1022E0003DD123789B000268944663441A885104C8
:1022F00004D539490A4040490A431A8023789B0093
:102300000268944663441A88510604D532490A404B
:1023100033490A431A8023789B0002689446634439
:102320001A882D4911402E4A0A431A8021788900C3
:1023300003689C4661440B88304A1A40C0239B01C5
:102340005340264A13430B8023789B0001688C4638
:1023500063441988234C21400A431A8010E72378EC
:102360009B000268944663441A88510404D51A49B4
:102370000A4021490A431A8023789B000268944648
:1023800063441A88510604D513490A4014490A4384
:102390001A8023789B000268944663441A880E4989
:1023A0001140154A0A431A802178890003689C4627
:1023B00061440B880B4A1340084A13430B8023786F
:1023C0009B0001688C46634419880C4C21400A43E9
:1023D0001A80D5E60220D8E60F0F00008080FFFFAC
:1023E000C080FFFFBF8FFFFF8F89FFFF0404000045
:1023F000060400000080FFFF80C0FFFF8FBFFFFFCB
:102400000F0E00008081FFFF10B54AB2002A3ADBB0
:102410007F240C40E3001B1B9B000933FF33C318D0
:102420007F2421401970D20F5A70F4225200825C2E
:10243000012A00D1C1E0F4225200012181549A7A8C
:10244000002A41D15A78002A25D01A7892000168D2
:102450008C46624411884C0604D5594C2140594C95
:10246000214311801B789B000268944663441A88BC
:1024700055491140554A0A431A80F4235B00002253
:10248000C254002010BD7F240C40E3001B1B9B00A6
:102490002833C318C4E71A78920001688C46624456
:1024A00011884C0404D5464C2140494C21431180ED
:1024B0001B789B000268944663441A884549114082
:1024C000424A0A431A80D8E75A78002A3AD11A7841
:1024D000920001688C46624411884C0404D5384C43
:1024E00021403B4C214311801A78920001688C46B0
:1024F000624411884C0604D5314C2140314C2143B3
:1025000011801A78920001688C46624411882C4C24
:102510000C402C49214311801C78A4000268944689
:10252000644422882B490A4028490A4322801B78A8
:102530009B000268944663441A88234C224011434E
:1025400019809AE71A78920001688C4662441188D3
:102550004C0404D51A4C21401D4C214311801A789B
:10256000920001688C46624411884C0604D5144CD4
:102570002140144C214311801A78920001688C4646
:10258000624411880E4C0C401149214311801C7883
:10259000A40002689446644422880B490A400B490F
:1025A0000A4322801B789B000268944663441A8881
:1025B000084C2240114319805FE7022062E7C046C1
:1025C0000F0F0000C080FFFFBF8FFFFF8080FFFF65
:1025D00080C0FFFF8FBFFFFF70B57F242140CC007C
:1025E000641AA400041925001935FF352A60220059
:1025F0001D32FF321360083500222A60173D2A7011
:1026000022000932FF3211701534FF3422689342E0
:1026100041D9CC00641AA40004191D34FF349B1A5C
:102620002360CB005B1A9B00C3181333FF331B7866
:10263000002B43D104685033E55ACB005B1A9B0052
:10264000C3180933FF331B78DB00EB18764DAC461B
:1026500064441C193E2A28D953099BB2D20601D1E1
:10266000013B9BB29B02714A13432380CB00591A52
:10267000890041180931FF310A78920003689B18DC
:1026800019886B4A1140C02292015140694A0A439D
:102690001A80002070BDCA00521A920082181D32A2
:1026A000FF32002414601A00BBE753089BB2D20724
:1026B00001D501339BB29B022380D7E7CB005B1A85
:1026C0009B00C3180A33FF331B78002B69D10468C1
:1026D0005033E55ACB005B1A9B00C3180933FF3314
:1026E0001B78DB00EB18544DAC4664441C193E2AA1
:1026F0002DD953099BB2D50601D1013B9BB29B0258
:102700004A4D2B432380CB005B1A9B00C3180A332E
:10271000FF331B78002B71D105685023EC5ACB0096
:102720005B1A9B00C3180933FF331B78DB00E418E6
:102730003D4B9C466544641953099BB2D20601D1B6
:10274000013B9BB29B02394A134323808EE7530817
:102750009BB2D50701D501339BB29B022380CB00EE
:102760005B1A9B00C3180A33FF331B78002B45D13B
:1027700005685023EC5ACB005B1A9B00C318093341
:10278000FF331B78DB00E418274B9C466544641933
:1027900053089BB2D20701D501339BB29B02238021
:1027A00064E7012B00D061E705684F33EC5ACB009A
:1027B0005B1A9B00C3181E000936FF363678F600F8
:1027C000AD1964191C4DAC46644422800A33FF33B2
:1027D0001B78002B12D105685033EC5ACB005B1AE2
:1027E0009B00C3180933FF331B78DB00E4180E4B42
:1027F0009C46654464193E2ACAD99DE7012B00D046
:1028000034E704684F33E55ACB005B1A9B00C318CA
:102810000933FF331B78DB00E4182C19024B9C466C
:102820006444228022E7C046060400000080FFFFC7
:102830008FBFFFFF8080FFFF020400000B007F219D
:102840001940CB00591A890040182130FF30008808
:102850007047000030B5F4235B00C35C012B57D0F8
:10286000F4235B000122C2544BB2002B25DBCB00CA
:102870005A1A9200821814000B34FF340125257077
:102880007F240C400932FF3214705B1A9B00C3187E
:102890000A33FF3300221A70002C2BD101680A88FA
:1028A0001C4B1A401C4B5A401C4B13430B80F42307
:1028B0005B000022C254002030BD7F230B40DA00B1
:1028C000D21A9200821814002A3401212170023C8D
:1028D000237029321170002BE0D09B0002689446CF
:1028E00063441A880E490A4010214A400B490A43A2
:1028F0001A80DCE7A40003689C4664442288094BE4
:102900001A4080235B015A40044B13432380CEE7D7
:102910000220D1E7BFBFFFFF101000008080FFFF43
:10292000BF8FFFFF8FBFFFFF10B54AB2002A38DB11
:10293000CB005B1A9B000933FF33C31800249C7043
:102940007F3421401970D20F5A70F4225200825CF9
:10295000012A4AD0F4225200012181545A78002AD7
:1029600027D01A78920001688C46624411884C0680
:1029700004D51F4C21401F4C214311801A7892002E
:1029800003689C46624413881B490B4030214B402E
:102990001A490B431380F4235B000022C254002029
:1029A00010BD7F240C40E3001B1B9B002833C31881
:1029B000C4E71A78920001688C46624411884C047E
:1029C00004D50B4C21400E4C214311801B789B00F9
:1029D00002689446634419880A4A1140C022920151
:1029E0005140064A0A431A80D5E70220D8E7C0467C
:1029F0000F0F0000C080FFFFBF8FFFFF8080FFFF31
:102A000080C0FFFF8FBFFFFF10B501335B0880243C
:102A1000E400A44660448018002B0AD00C00411A40
:102A200060780002227802430A53013B0234002BF3
:102A3000F6D110BDF8B505007F240C40E100091B5C
:102A4000890041188A63CB6300220A640A00293294
:102A500001201070013A14704F6BBB4231D9DB1B5F
:102A6000CB63E200121B9200AA1832321378002BBB
:102A70002FD02A68E3001B1B9B00EB182833187823
:102A800083009B5A5B0676D5E3001B1B9B00EB186B
:102A900029331B78002B3DD15033D35AC00018186E
:102AA000624B9C46624482183E2F2AD97B099BB216
:102AB000F90601D1013B9BB29B025D4803431380A1
:102AC0002AE0E200121B9200AA180021D1631F0025
:102AD000C7E7BFB2E600361BB600AE19B28D3B00A9
:102AE000B16B2868FFF790FF2A685023D35A283625
:102AF0003178C90052189B184E4A944663441F808F
:102B000081E07B089BB2F90701D501339BB29B02A0
:102B1000138001E0012B24D0E3001B1B9B00EB186A
:102B20001A8EBBB2E600361BB600AE19B16B286830
:102B3000FFF76AFF29363378002B54D0012B62D17E
:102B4000E3001B1B9B00EB1828331B789B002A68B3
:102B5000944663441A8838491140384A0A431A8017
:102B600051E04F33D35AC00012189A182F4B9C468D
:102B700062441780D0E7E3001B1B9B00EB1829334E
:102B80001B78002B1DD15033D35AC0001818294B85
:102B90009C46624482183E2F0AD97B099BB2F906F3
:102BA00001D1013B9BB29B022148034313800AE001
:102BB0007B089BB2F90701D501339BB29B021380BE
:102BC00001E0012B05D0E3001B1B9B00EB18DA8D05
:102BD000A7E74F33D35AC00012189A18154B9C46DA
:102BE00062441780EFE7E3001B1B9B00EB182833C0
:102BF0001B789B002A68944663441A880E4911404A
:102C00000F4A0A431A80E1000C1BA4002C19283437
:102C100023789B002A68D21813880A490B40302178
:102C20004B4009490B4313800020F8BD0604000007
:102C30000080FFFF020400000F0F000080C0FFFFB4
:102C4000C080FFFFBF8FFFFF8080FFFFF0B55F08F0
:102C50008024E400A446604482181000002F0DD0A8
:102C60000C003E00501A055B25702D0A6570013E70
:102C70000234002EF7D17F00D019C919DB0701D526
:102C800003880B70F0BD0000F0B5D6464F464646AF
:102C9000C0B582B0040044230268D35A1BB2002B93
:102CA0004FDB236844229A5A520500D594E22368E8
:102CB00044229A5A520404D544215A5AB94802402F
:102CC0005A52236844229A5A920404D544215A5AEB
:102CD000B54802405A52236844229A5AD20400D579
:102CE00087E2236844229A5A120514D54422995A3D
:102CF000AE480140995220684023C15A0825294313
:102D0000C1522068C15A04252943C15223689B5AE5
:102D1000DB0400D47FE2236844229A5A920500D54E
:102D20007DE2236844229A5AD20504D544215A5A96
:102D30009F4802405A5202B01CBC90469946A24697
:102D4000F0BD6B460022DA80442701AE0F2398467F
:102D50002068C35B9BB233801BB2002BA1DA35889D
:102D600043461D4000D0B1E03388DB064BD50288D6
:102D70006B46DA8006331B881B0572D46B4606331C
:102D80001B881BB2002BE3DA03888A4A13400380B6
:102D900020685023C35A84225200A25CD2008218B9
:102DA0009B18854A944663441B889B059B0D220013
:102DB0000932FF329361002B74D10021200005F00D
:102DC000C1FA236850229A5A7B498C4663449B1867
:102DD00022000932FF32D1683E296ED94A0992B2E7
:102DE000C90601D1013A92B2920274490A431A808B
:102DF00021680A88724B1A40C0239B015A40714BCC
:102E000013430B80A4E703886F4A134003802168B3
:102E10005023CB5A2822A25CD2008A189B186B4AF6
:102E2000944663441B889B059B0D2364A26B9446C8
:102E30006344A3630021200005F092FA2423E35C9D
:102E4000002B00D184E7E36B002B00D080E7242225
:102E5000A35C80210B433439206843520023A354E0
:102E600076E75023C35A84225200A25CD200821813
:102E70009B18514A944663441B889B059B0D220076
:102E80000932FF32936192882100ED31FF31FFF763
:102E9000DDFE2268138847490B401380200005F0AF
:102EA00047FA55E7150092882969FFF7CFFE2B698D
:102EB000AA69944663442B617FE74A0892B2C90726
:102EC00001D5013292B292021A8091E7AB00994685
:102ED000484402886B46DA8006331B881BB2002BFD
:102EE00030DB6B4606331B881B0600D430E72368B3
:102EF0004B441A8834490A401A80EB005B1B9B0044
:102F0000E31832331B78002B00D0EBE020685033FD
:102F1000C35AEA00521B9200A21811002831097806
:102F2000C90041185B1829498C4663441B889B05DE
:102F30009B0D136400D102E11100928D896BFFF7A4
:102F400063FDFCE01B4B1A400280EB005B1B9B0007
:102F5000E3181333FF331B78002B39D1206850332B
:102F6000C25AEB005B1B9B00E3180933FF331B784D
:102F7000DB00C318D318104A944663441A8892059C
:102F8000930D9A464ED0EB005B1B9B00E3181A0092
:102F90000D32FF3212881933FF3319685346FFF799
:102FA00055FE3FE0FFBFFFFFFFDFFFFFFFF7FFFF23
:102FB000FFFEFFFF8F0F0000060400000080FFFFF0
:102FC0008FBFFFFF8080FFFF0F8FFFFF0204000015
:102FD0002068EB005B1B9B00E3180933FF331B7871
:102FE0009A00125A520456D55022825ADB00C31856
:102FF000D3188F4A944663441A889205930D9A46D3
:103000003AD1EB005B1B9B00E3180933FF331B78BD
:103010009B002268944663441A8886491140864A78
:103020000A431A805046E900491B890061180A00CA
:103030002132FF321368534413600B001933FF33FE
:103040001A6852441A601D31FF310B68002B08D0FA
:10305000E900491B890061181531FF310968884270
:1030600035D2EB005B1B9B00E3180933FF33197863
:10307000200005F067F934E7EB005B1B9B00E318C9
:103080001A000F32FF3212881933FF331968534682
:10309000FFF7DCFDB5E75022825ADB00C318D318D6
:1030A000664A944663441A889205930D9A46A8D0BE
:1030B000EB005B1B9B00E3181A001132FF321288F1
:1030C0001933FF3319685346FFF7C0FD99E7E9004C
:1030D000491B890061180931FF3109782000FFF789
:1030E0007BFAFEE62068EB005B1B9B00E3182833AD
:1030F0001B789A00125A52064CD55022825ADB0095
:10310000C318D3184A4A944663441B889B059B0DF9
:10311000EA00521B9200A2181364002B34D1EB007A
:103120005B1B9B00E31828331B789B0022689446A6
:1031300063441A883F491140414A0A431A80216872
:103140005023CA5AEB005B1B9B00E3181800283081
:103150000078C0000918521835498C46624412881C
:103160009205920D1A64996B8C4662449A63DB6BEC
:10317000002B27D1EB005B1B9B00E3182833197849
:10318000200005F0EDF8E3E51100D28D896BFFF723
:103190003BFCC4E75022825ADB00C318D318274AED
:1031A000944663441B889B059B0DEA00521B9200CA
:1031B000A2181364002BB2D01100128E896BFFF796
:1031C00023FCACE7E900491B890061182831097824
:1031D0002000FFF72FFCBBE544215A5A1948024052
:1031E0005A52200005F0CFF800212000FEF749FFD9
:1031F0005DE54022995A042081439952124B21687F
:103200008B52200005F0E2F8216844228B5A0F48C7
:1032100003408B5265E5200005F0C6F87BE54421AC
:103220005A5A0B4802405A52200005F0A5F878E59A
:10323000020400000F0F0000C080FFFF0604000022
:1032400080C0FFFFFFFBFFFF00BDFFFFFFEFFFFFA1
:10325000FFFDFFFF10B50C060FD57F242140CC00E9
:10326000611A890028314018002A0DD0012282728B
:10327000C3801B0C0381002010BDCC00611A8900A3
:103280000931FF314018EFE782728380F3E70000D5
:10329000F0B5CE46474680B583B004000368DB072F
:1032A0002CD5BE4B5A680C231340042B1DD0BB4BAE
:1032B0005A680C231340082B0ED06368012B44D0AE
:1032C000002B5BD1B54B1A68B5490A401A601A68E1
:1032D000B4490A401A603EE0B04B5B68C02252021B
:1032E0001340802252029342E7D1AC4B1B689B03F0
:1032F00004D501206368002B00D199E023689B0767
:103300007DD5A64B5B680C221A4268D0A34B5A6845
:103310000C231340082B59D0E368002B00D195E013
:103320009E4A136801210B431360FDF7EFFF07006E
:103330009A4E022533681D4200D07EE0FDF7E6FF7D
:10334000C01B0228F6D9032072E0944A116880233A
:103350005B020B4313606368002B27D0FDF7D6FF99
:1033600007008E4E8025AD0233682B42C6D1FDF793
:10337000CDFFC01B6428F7D9032059E0052B09D0E5
:10338000864B1A6886490A401A601A6885490A40BD
:103390001A60E0E7814B19688022D2020A431A6062
:1033A0001968802252020A431A60D4E7FDF7AEFF83
:1033B00007007A4E8025AD0233682B429ED0FDF780
:1033C000A5FFC01B6428F7D9032031E0734B5B686D
:1033D000C022520213408022120293429CD16F4BB2
:1033E0001B689B0703D50120E368012B20D16B49A3
:1033F0000A682369DB00F820824313430B602368CB
:103400001B074BD5E369002B34D0644A536A012172
:103410000B435362FDF77AFF0700604E0225736A83
:103420001D423BD1FDF772FFC01B0228F7D90320D4
:1034300003B00CBC90469946F0BD58490A68236910
:10344000DB00F820824313430B60D8E7534A13682C
:1034500001218B431360FDF759FF07004F4E0225F2
:1034600033681D42CBD0FDF751FFC01B0228F7D9AE
:103470000320DDE7494A536A01218B435362FDF77C
:1034800045FF0700454E0225736A1D4206D0FDF731
:103490003DFFC01B0228F7D90320C9E723685B075B
:1034A00000D488E03D4BDB6900229046DB000BD462
:1034B0003A4AD169802040050143D161D369034074
:1034C0000193019B01239846374B1B68DB050ED502
:1034D000A368012B21D0002B38D1304B1A6A01216F
:1034E0008A431A621A6A03318A431A621AE02E4A20
:1034F000116880235B000B431360FDF707FF050095
:10350000294F802676003B683342E1D1FDF7FEFE6D
:10351000401B6428F7D903208AE7204A136A012157
:103520000B431362A368002B26D0FDF7EFFE814604
:103530001A4F02261D4D3B6A1E4239D1FDF7E6FEA9
:103540004B46C01AA842F6D9032071E7052B09D0D3
:10355000124B1A6A01218A431A621A6A03318A439A
:103560001A62DFE70D4B1A6A04210A431A621A6ACB
:1035700003390A431A62D5E7FDF7C8FE8146074FB3
:1035800002260A4D3B6A1E4212D0FDF7BFFE4B4693
:10359000C01AA842F6D903204AE7C04600100240EC
:1035A000FFFFFEFFFFFFFBFF0070004088130000DD
:1035B0004346012B3CD02368DB0610D56369012B01
:1035C0003CD005335BD17D4A536B04218B4353635D
:1035D000516BA369DB00F82081430B4353632368DD
:1035E0009B0674D5754B5A680C2313400C2B65D081
:1035F000724B5A680C231340082B58D0236A002BB7
:1036000000D186E06D4A516B80235B020B4353630C
:10361000FDF77CFE0700694E80256D02736B2B421F
:1036200055D1FDF773FEC01B0228F7D90320FFE632
:10363000624AD36962490B40D361BCE75F4B5A6B66
:1036400004210A435A635A6B03390A435A63FDF74C
:103650005DFE0700594E0225736B1D4206D1FDF732
:1036600055FEC01B0228F7D90320E1E653494A6BF7
:10367000A369DB00F820824313434B63AFE74F4B52
:103680005A6B04210A435A635A6B03398A435A63BB
:10369000FDF73CFE0700494E0225736B1D429ED08C
:1036A000FDF734FEC01B0228F7D90320C0E6434BC8
:1036B0005B68C0225202134093429FD13F4B5B6B29
:1036C000DB0304D50120236A012B00D0B0E6636A36
:1036D0000020002B00D1ABE6384A51680C220A408A
:1036E000082A68D0022B29D0344A136835490B4088
:1036F0001360FDF70BFE0600304D8024A4042B68F8
:10370000234256D0FDF702FE801B0228F7D9032082
:103710008EE62A4A536B2C490B405363FDF7F6FDA6
:103720000700264E80256D02736B2B42CFD0FDF72C
:10373000EDFDC01B0228F7D9032079E61F4A136864
:1037400020490B401360FDF7E1FD07001B4E80256B
:10375000AD0433682B4206D0FDF7D8FDC01B02280C
:10376000F7D9032064E6154BDA6A0F218A43216BEF
:103770000A43DA625968E26AA06A024313480140C8
:103780000A435A601968802252040A431A60FDF7FE
:10379000BDFD0600094D8024A4042B68234206D1F8
:1037A000FDF7B4FD801B0228F7D9032040E6002076
:1037B0003EE600203CE601203AE6C046001002400A
:1037C000FFFFFFEFFFFFFFFEFFFFFEFFFF7FC2FFD8
:1037D00030B589B004AA214B180032C832C211009A
:1037E00002680A606A46103313CB13C21B68136069
:1037F0001B4B5B680C20184008280AD00C38434249
:1038000058414042174B1840174B9C46604409B042
:1038100030BD990C0F22114004A8445C1049C96ABC
:103820000A406946895CC02252021340802252023B
:10383000934208D0C0225202934209D00A48FCF7B2
:1038400063FC6043E3E70848FCF75EFC6043DEE7A7
:103850000648FCF759FC6043D9E7C0468C91000844
:1038600000100240005A620200127A00006CDC0272
:10387000F8B5CE46474680B505000C005F4B1A6888
:10388000012313408B420ED25C490B680122934303
:1038900023430B600B681A400120A24203D00CBCEA
:1038A00090469946F8BD2B689B0706D5544A536845
:1038B000F0218B43A9680B4353602B68DB0770D55D
:1038C0006B68012B09D0022B2CD0032B30D04C4A33
:1038D00012680120920705D4E1E7494A12680120E5
:1038E0009203DCD546494A680320824313434B6068
:1038F000FDF70CFD06006B68012B1FD0022B2ED0AC
:10390000032B3DD03E4B98460C273E4B99464346F1
:103910005B681F4245D0FDF7F9FC801B4845F6D98E
:103920000320BCE7364A126801209201DAD4B6E7D8
:10393000334A526B0120D203D4D4B0E7304B9846BF
:103940000C27304B994643465B683B40042B28D0FC
:10395000FDF7DCFC801B4845F5D903209FE7284B89
:1039600098460C27274B994643465B683B40082BFB
:1039700017D0FDF7CBFC801B4845F5D903208EE717
:103980001F4B98460C271F4B994643465B683B40AC
:103990000C2B06D0FDF7BAFC801B4845F5D9032057
:1039A0007DE7164B1A6801231340A3420BD9134934
:1039B0000B680122934323430B600B681A400120DC
:1039C000A24200D06BE72B685B0706D50C4A536810
:1039D0000D490B40E9680B435360FFF7F9FE084BB4
:1039E0005B681B061B0F094AD35CD840084B186064
:1039F0000020FDF769FC002051E7C046002002408E
:103A00000010024088130000FFF8FFFF3492000806
:103A100038010020014B18687047C046380100206B
:103A2000044B5B685B055B0F034AD35C034A106879
:103A3000D84070470010024044920008380100202E
:103A4000F0B5CE46474680B583B004000368DB037B
:103A500036D54E4BDB690025DB000AD44B4AD169D1
:103A6000802040050143D161D36903400193019B4C
:103A70000135474B1B68DB055AD5444B1B6AC022F6
:103A80009200134013D061680A409A420FD03F4B16
:103A9000186A404A02401E6A802149023143196275
:103AA000196A3D4E314019621A62C30757D4374A2A
:103AB000136A38490B4061680B431362012D60D0D3
:103AC0002368DB0706D5314A136B03218B43A168BA
:103AD0000B43136323689B0706D52C4A136B2F49AE
:103AE0000B40E1680B43136323689B0606D5274A06
:103AF000136B10218B4321690B43136323689B03D2
:103B000006D5224A136B80218B43A1690B431363B3
:103B1000002023685B0506D51C4A136B40218B43AC
:103B200061690B43136303B00CBC90469946F0BD2A
:103B3000174A116880235B000B431360FDF7E6FB17
:103B40008046134F802676003B68334295D1FDF7BF
:103B5000DDFB4346C01A6428F6D90320E3E7FDF7EE
:103B6000D5FB8146094F02260D4B98463B6A1E4203
:103B70009DD1FDF7CBFB4B46C01A4045F6D903203B
:103B8000D1E7D36907490B40D36199E700100240A0
:103B900000700040FFFCFFFFFFFFFEFFFFFFFCFF88
:103BA00088130000FFFFFFEF104B196980221205F8
:103BB0000A431A611A690E490A401A610368426889
:103BC000134382681343C268134302691204134308
:103BD000084A5360116843691B02074801400B43C0
:103BE0001360136860210B4313607047001002409C
:103BF000FFFFFFF7006C0040FFC0FFFFF8B50700B4
:103C00000C0016001D003A68936823401B1B5942A4
:103C10004B419E423BD06B1CF6D0002D05D0FDF7EA
:103C200075FB069BC01AA842EDD33A685368E021A1
:103C30008B43536082235B007A689A420CD08023C6
:103C40009B01BA6A9A4216D05D230122FA54013BC5
:103C50000022FA5403201BE0BB6880221202934228
:103C600003D08022D2009342E9D13A681368402100
:103C70008B431360E3E73A68136806490B4013600F
:103C80003A68116880239B010B431360DCE7002036
:103C9000F8BDC046FFDFFFFFF0B5CE4600B582B0ED
:103CA00081460C0016001F00C025ED004B461A6827
:103CB00001E07B1C0ED193682340B3424CD0AC4250
:103CC000F7D1002EF5D1137BDBB26946CB716B4681
:103CD000DB79EEE7002F05D0FDF718FB089BC01A33
:103CE000B842E3D34B461A685368E0218B435360D4
:103CF00082235B004A4652689A420ED080239B0181
:103D00004A46926A9A4219D05D2301224946CA5412
:103D1000013B0022CA5403201FE04B469B688022CF
:103D20001202934203D08022D2009342E6D14B4646
:103D30001A68136840218B431360DFE74B461A680B
:103D4000136808490B4013604B461A6811688023BA
:103D50009B010B431360D7E7002002B004BC9146DF
:103D6000F0BDC046FFDFFFFF70B582B004000D005C
:103D70001600C02100922B0000224901FFF78CFFA2
:103D8000002818D100962B00002280212000FFF788
:103D900035FF002816D1C02100962B000022C90053
:103DA0002000FFF779FF00280AD0236E202213435A
:103DB0002366032004E0236E20221343236603209E
:103DC00002B070BD236E2022134323660320F7E761
:103DD00070B5041E5CD0002383625D33C35C002B8E
:103DE0001AD05D230222E2542268136840218B43DB
:103DF0001360E368E022D20093424BD8F022120114
:103E0000934258D0E022D20093420BD1236B002B77
:103E10003BD0802149010CE05C330022C25403F006
:103E200093FFDEE78021490139E080214901022327
:103E3000236322686368A0680343206903436069C1
:103E40000343E0690343206A0343A06A03438020DD
:103E50008000A5692840034313602068636A626B91
:103E60001343E2681343658B04222A4013430B4338
:103E700043602268D36915490B40D3610023236650
:103E80005D330122E254002070BD802149010FE022
:103E90000120F9E7F02212010021934211D0002203
:103EA000A262226B002AC4D1E022D2009342BED883
:103EB00001232363BDE7236B002BB6D0802149018A
:103EC000B7E7216B0029B2D00021B2E7FFF7FFFF6F
:103ED000F0B585B004000D0016001F005C23C35C24
:103EE000012B00D1D2E05C230122C254FDF70EFA6F
:103EF00001905D23E35C0220012B07D05D230122AA
:103F0000E254013B0022E25405B0F0BD002D00D187
:103F1000B6E00138002EF1D05C330322E2540023D6
:103F20002366A563A687E68723644132A352023243
:103F3000A3522365E36480231B02A2689A421DD02A
:103F400023681A68520603D41A6840210A431A608B
:103F5000E023DB00E2689A4234D96368002B03D087
:103F6000E38F9BB2012B07D123682A88DA600235E0
:103F7000E38F013B9BB2E38702260BE022681168C6
:103F80008023DB010B431360DAE7002F00D179E0D7
:103F90007B1C0FD1E38F9BB2002B59D023689A680A
:103FA0001642F2D02A88DA600235E38F013B9BB2D9
:103FB000E387EFE7FDF7AAF9019BC01AB842E9D3FE
:103FC00003209BE76368002B03D0E38F9BB2012B98
:103FD0000BD1E38F9BB2012B09D923682A88DA60C1
:103FE0000235E38F023B9BB2E387022614E02B7875
:103FF00022681373E38F013B9BB2E3870135F4E73B
:104000002A781A73E38F013B9BB2E387013503E003
:10401000002F39D07B1C13D1E38F9BB2002B17D01C
:1040200023689A681642F3D0E28F92B2012AE7D948
:104030002A88DA600235E38F023B9BB2E387EBE725
:10404000FDF764F9019BC01AB842E5D3032055E798
:10405000019A39002000FFF787FE002801D02023B5
:104060002366A368002B06D103932368DA680392C2
:104070009B680393039B206E431E9841C0B23DE7AB
:1040800001203BE7032039E7032037E702203BE725
:1040900070B5036A012293430362036A426884692C
:1040A0007325AC430D682C430225AB438D682B432D
:1040B000194DA8420FD0194DA8421ED0184DA84244
:1040C00022D0184DA84212D10825AB43CD682B430E
:1040D0000425AB4305E00825AB43CD682B430425FD
:1040E000AB43114D2A404D698E6935432A434260E6
:1040F00084614A684263036270BD0825AB43CD68A2
:104100002B430425AB43ECE70825AB43CD682B4399
:104110000425AB43E5E7C046002C014000400140C8
:104120000044014000480140FFFCFFFF70B5036AF6
:10413000174A13400362036A4268C5697324A543A2
:104140000C682543134C23408C6824022343124CF3
:10415000A04209D0114CA0420DD0114CA0420AD06F
:10416000104CA0420ED106E00F4C1C40CB681B0245
:1041700023430E4C23400E4C14408A694E6932434F
:10418000120122434260C5614A68C263036270BD86
:10419000FFFEFFFFFFFDFFFF002C0140004001403C
:1041A0000044014000480140FFF7FFFFFFFBFFFF15
:1041B000FFCFFFFF30B5036A134A13400362026A60
:1041C0004368C469114D2C400D682D022C43104DDD
:1041D00015408A6812032A430E4DA84208D00E4D9E
:1041E000A84205D00D4DA84202D00D4DA84204D1E1
:1041F0000C4D2B404D69AD012B434360C4614B68AE
:104200000364026230BDC046FFEFFFFFFF8CFFFF7B
:10421000FFDFFFFF002C014000400140004401404F
:1042200000480140FFBFFFFF0368424A904226D08A
:104230008022D205904218D03F4A90421AD03F4A7D
:1042400090424CD03E4A904257D03E4A904262D073
:104250003D4A904235D0802293434A69134303601C
:104260008B68C3620B68836228E0702293434A68BC
:10427000134308E0702293434A68134303E070221B
:1042800093434A681343314A1340CA681343802258
:1042900093434A69134303608B68C3620B6883626C
:1042A000244B984208D0264B984205D0254B984283
:1042B00002D0254B984201D10B690363012343616E
:1042C0007047224A1340CA681343802293434A69C5
:1042D000134303608B68C3620B688362ECE71B4A7D
:1042E0001340CA681343802293434A69134303600F
:1042F0008B68C3620B688362E0E7144A1340CA68A4
:104300001343802293434A69134303608B68C3625B
:104310000B688362D0E70D4A1340CA6813438022BA
:1043200093434A69134303608B68C3620B688362DB
:10433000C2E7C046002C01400004004000200040BD
:10434000004001400044014000480140FFFCFFFFE5
:1043500070B5041E14D03D23C35C002B0AD03D254C
:1043600002236355211D2068FFF75EFF012363557B
:10437000002070BD3C330022C25403F04BFDEEE739
:104380000120F6E770B5041E14D03D23C35C002B5A
:104390000AD03D2502236355211D2068FFF744FF05
:1043A00001236355002070BD3C330022C25403F04A
:1043B00075FDEEE70120F6E7F0B5C64600B504004E
:1043C0000D00002844D03D23C35C002B3AD03D268D
:1043D0000223A355210004C99368072083439360F7
:1043E0002068FFF721FF216888688A690F6A2B68B7
:1043F00018438046174B1A40AB691B02A868034359
:104400001343154A1A40EB691B0228690001034354
:10441000E8680343286A000303431343AA2297432F
:104420003A00686907016D682F43174342468A6066
:104430002268936123681F620123A355002004BCF6
:104440009046F0BD3C330022C25403F0AFFCBEE7FF
:104450000120F4E7FCFCFFFF0303FFFF70B5036AD4
:10446000102293430362026A43688569154C254014
:104470000C68240225432024A2438C682401224393
:10448000114CA04209D0114CA0420ED0104CA042B9
:104490000BD0104CA0420FD107E08024A24314009F
:1044A000CA68120122434024A2430B4C1C408B6972
:1044B0004E6933439B002343436085614B688363AC
:1044C000026270BDFF8CFFFF002C014000400140E4
:1044D0000044014000480140FFF3FFFF70B50400B5
:1044E0000D003C23C35C012B69D03C230121C15446
:1044F00001330131C154042A37D019D9082A4AD0CE
:104500000C2A2AD129000068FFF754FE2268D169DD
:1045100080231B010B43D3612268D36929490B40D7
:10452000D3612268D1692B691B020B43D36114E06C
:10453000002A12D129000068FFF7AAFD22689369BA
:1045400008210B4393612268936904398B4393617B
:104550002268936929690B4393613D230122E25448
:10456000013B0022E254002070BD29000068FFF7E3
:1045700075FF2268916980231B010B4393612268B8
:10458000936910490B409361226891692B691B0262
:104590000B439361E1E729000068FFF7C7FD22683C
:1045A000D36908210B43D3612268D36904398B4353
:1045B000D3612268D36929690B43D361CDE7022017
:1045C000D2E7C046FFFBFFFF30B58468034D2C40A7
:1045D0001B020A4313432343836030BDFF00FFFFE8
:1045E00070B504003C23C35C012B00D1BEE03C232A
:1045F0000122C25401330132C254026893685C48FC
:10460000034093600B68402B00D185E021D9702BCB
:104610005CD039D8502B65D0602B4FD123684A68C5
:10462000C968186A1025A84318629D69186A514E16
:10463000354009032943A025A8431201024399618B
:104640001A622268936870218B4309390B43936087
:1046500034E0102B00D179E00CD9202B00D17DE083
:10466000302B2BD12268936870218B4339390B434F
:10467000936023E0002B21D12268936870218B4343
:1046800069390B43936019E080225201934210D0A4
:1046900080229201934211D1CB684A6889682068D0
:1046A000FFF792FF226891688023DB010B43936040
:1046B00004E02268936807218B4393603D23012225
:1046C000E254013B0022E254002070BDCB684A68EE
:1046D00089682068FFF778FF2268936877210B4389
:1046E0009360EBE723684868CA68196A1D6A012667
:1046F000B5431D629D69EF36B54312012A430A2571
:10470000A94301439A6119622268936870218B431F
:1047100019390B439360D1E723684868CA68196A5E
:104720001D6A0126B5431D629D69EF36B54312012E
:104730002A430A25A94301439A61196222689368B2
:1047400070218B4329390B439360B7E72268936844
:1047500070218B4359390B439360AFE7226893680C
:1047600070218B4349390B439360A7E70220ACE7E4
:104770008800FFFFFF0FFFFF10B5036A01248C4084
:10478000A3430362036A8A401A43026210BD000019
:1047900010B5040001220068FFF7EEFF23680C4A01
:1047A000934208D00B4A934205D00B4A934202D061
:1047B0000A4A934204D1596C802212020A435A6475
:1047C0002268136801210B431360002010BDC0460E
:1047D000002C0140004001400044014000480140DD
:1047E00010B50400002916D0042925D0012200218B
:1047F0000068FFF7C1FF012204212068FFF7BCFF1A
:104800002268D36802210B43D3602268D368023147
:104810000B43D36009E0012200210068FFF7ACFFE1
:104820002268D36802210B43D360226813680121F8
:104830000B431360002010BD012204210068FFF724
:104840009BFF2268D36804210B43D360EDE7F0B5EA
:104850003C23C35C012B1ED03C22012585543D2402
:1048600002230355066873687027BB4373600668AC
:1048700073680F683B4373600668B3688027BB4367
:10488000B3600668B36849680B43B36005550023FD
:1048900083540020F0BD0220FCE7000070B53C23EB
:1048A000C35C012B28D03C22012585543D240223E2
:1048B0000355124BCE6833408E683343104E33405D
:1048C0004E6833430F4E33400E6833430E4E334031
:1048D0000E6933430D4E33404E6933430C4E334023
:1048E00089690B430B4E33400B4301684B640555FC
:1048F00000238354002070BD0220FCE7FFFCFFFF73
:10490000FFFBFFFFFFF7FFFFFFEFFFFFFFDFFFFFF3
:10491000FFBFFFFFFF7FFFFF0268136806490B40E0
:104920001360026893682331FF318B4393606A23DD
:104930002022C2547047C046DFFEFFFF30B56A2315
:10494000C45C683B202C2ED1002958D0013B002AA2
:1049500029D0836880246401A34226D06824045DA2
:10496000012C4ED06824012505554165582142523D
:1049700002314252002B2CD080225205934233D078
:104980000023C3666A2222218154023A83540268BA
:10499000936821390B4393600268116890235B0090
:1049A0000B4313600023180030BD0369002B2CD18A
:1049B0000133CC07F7D46823C45C663B012CF2D0EA
:1049C00041655823C2520233C2520233154AC252C1
:1049D000D6E70369002B03D15C33FF22C252CFE735
:1049E0005C237F22C252CBE70369002B03D15C33E7
:1049F0007F22C252C4E75C233F22C252C0E7012398
:104A0000D1E70223CFE70223CDE76823C35C012B64
:104A1000F9D041655823C2520233C2520233FF22F9
:104A2000C252ADE7FF01000070B504006920255CAB
:104A30006738202D40D100293DD00138002A3BD0D5
:104A400080235B01A06898422ED06823E35C012B91
:104A500033D068260123A355E1644F33E252023379
:104A6000E2520025E56617332121E154236E1449F3
:104A70009962236E1349D962236E13491963236E19
:104A80005D632168283113000A00E16C206EFCF799
:104A90008FFF236840221A62A555226893688021FF
:104AA0000B439360002007E02369002BCDD1012048
:104AB000CB07CAD500E0012070BD0220FCE7C0464C
:104AC000CF4A0008014B00080D4B0008704710B595
:104AD000436A0268126892060DD45222002199524C
:104AE00019688A68802082438A601A6813684021A6
:104AF0000B43136010BD1800FFF7E8FFFAE770479B
:104B000010B5406AFFF7FBFF10BD704710B5446A4F
:104B10006923E35C212B0BD06A23E35C222B16D0A4
:104B2000E36E10221343E3662000FFF7EEFF10BD93
:104B300023689A681206EFD552220021A1521A6802
:104B4000C0318A431A6069232022E254E4E72368D3
:104B50009B685B06E4D55A230022E2522000FFF74F
:104B6000DBFEDDE710B5406A00235A228352083A83
:104B70008352FFF7CAFF10BD70B5040001680A68D0
:104B800083680069034360690343E069034376482F
:104B9000024013430B602268536874490B40E1687C
:104BA0000B43536021688A68A369206A03437048F5
:104BB000024013438B6025686E4B9D4211D06E4BB3
:104BC0009D4222D06D4B9D4200D199E06C4B9D429D
:104BD00000D195E080231B02E2699A4259D001205E
:104BE00053E0684B1A6B03231340012B64D0002B56
:104BF00032D0022B00D171E0032B4DD080231B0259
:104C0000E2699A4242D001203FE05E4B1B6BC0221A
:104C10009202134080225202934200D182E019D9BD
:104C200080229202934200D18DE0C02292029342F0
:104C3000E4D180231B02E2699A4232D061684808BD
:104C4000514B9C466044FBF75FFA0004000CE8609F
:104C500000201AE0002BD1D180231B02E2699A4286
:104C600053D1FEF7DDFE400063685B08C018616841
:104C7000FBF74AFA83B200200F22190091430A0081
:104C800021681B075B0F1343CB6070BD012000231D
:104C9000F2E701200023EFE780231B02E2699A423A
:104CA000CCD163685808394B9C4660446168FBF777
:104CB0002BFA83B20020DFE780231B02E2699A42CD
:104CC00035D0FEF785FD616824684B081818FBF79E
:104CD0001BFA0004000CE0600020D6E780231B02D2
:104CE000E2699A4234D06168480880231B029C46DE
:104CF0006044FBF709FA0004000CE8600020C4E7F8
:104D000080231B02E2699A42ABD0FEF789FE6168FC
:104D100024684B081818FBF7F7F90004000CE06052
:104D20000020B2E780231B02E2699A42C9D1FEF754
:104D30004FFD400063685B08C0186168FBF7E4F949
:104D400083B2002098E780231B02E2699A42CAD10D
:104D50006368580880235B029C4660446168FBF7E7
:104D6000D3F983B2002087E7F369FFEFFFCFFFFF9E
:104D7000FFF4FFFF003801400044004000480040BD
:104D8000004C00400010024000127A000024F400A1
:104D9000436ADB0706D5026853682C490B40816AD9
:104DA0000B435360436A9B0706D502685368284942
:104DB0000B40C16A0B435360436A5B0706D5026828
:104DC000536824490B40016B0B435360436A1B0734
:104DD00006D50268536820490B40416B0B43536072
:104DE000436ADB0606D5026893681C490B40816B59
:104DF0000B439360436A9B0606D502689368184983
:104E00000B40C16B0B439360436A5B060BD5026892
:104E1000536814490B40016C0B43536080235B03C0
:104E2000026C9A420AD0436A1B0606D50268536890
:104E30000D490B40816C0B43536070470268536807
:104E40000A490B40416C0B435360ECE7FFFFFDFF49
:104E5000FFFFFEFFFFFFFBFFFF7FFFFFFFEFFFFFF7
:104E6000FFDFFFFFFFFFEFFFFFFFF7FFFFFF9FFFEA
:104E7000F0B5C64600B507000C0016009846069D22
:104E80003A68D36923401B1B59424B41B3421ED1A0
:104E90006B1CF6D0002D05D0FCF738FA4346C01A3B
:104EA000A842EDD93A6813680B490B4013603A6881
:104EB0009368A331FF318B43936020236922BB5455
:104EC0000132BB5448330022FA54032000E0002092
:104ED00004BC9046F0BDC0465FFEFFFFF0B5CE4675
:104EE00000B584B004000E0017001D006923C35CE8
:104EF0000220202B5AD1002957D00138002A55D042
:104F000080235B01A2689A4217D06823E35C012BDF
:104F100050D068230122E2540023E3666933203233
:104F2000E254FCF7F3F903905023E7520233E752BF
:104F3000522780235B01994609E02369002BE4D1C5
:104F4000CB07E2D532E03378226813850136E35B84
:104F50009BB2002B19D0E35B013B9BB2E35300955E
:104F6000039B002280212000FFF782FF002823D12D
:104F7000A3684B45E7D12369002BE4D13388DB05D7
:104F8000DB0D226813850236E1E70095039B0022C2
:104F900040212000FFF76CFF00280FD16923202259
:104FA000E254013B0022E25400E0012004B004BCC2
:104FB0009146F0BD0220F9E70320F7E70320F5E76B
:104FC00030B583B004000023C366FCF79FF90500E9
:104FD0002368194A93420DD0184A93420AD02023DD
:104FE0006922A3540132A35448330022E254002022
:104FF00003B030BD1B681B0710D423681B685B0718
:10500000EDD580210E4B00932B000022C903200018
:10501000FFF72EFF0028E2D00320E9E78021084BAC
:1050200000932B00002289032000FFF721FF0028B6
:10503000E3D00320DCE7C0460038014000440040D4
:10504000FFFFFF0110B5041E30D06923C35C002BA5
:1050500022D069232422E2542268136801218B4361
:1050600013602000FFF788FD012814D0636A002B2D
:1050700018D1226853680E490B4053602268936828
:105080002A218B4393602268136829390B431360EC
:105090002000FFF795FF10BD68330022C25402F0D4
:1050A000EBFFD6E72000FFF773FEE2E70120F2E70F
:1050B000FFB7FFFF6923C25C673B212A15D150333C
:1050C000C35A9BB2002B12D080235B0182689A42A4
:1050D00019D0C36C5A1CC2641B7802681385522213
:1050E000835A013B9BB28352002318007047026829
:1050F000136880218B4313600268136840390B43A7
:1051000013600023F1E70369002BE2D1C36C1B8815
:10511000DB05DB0D02681385C36C0233C364DEE775
:1051200010B50268136840218B4313606923202265
:10513000C254FFF7CBFC002010BD000010B56A235D
:10514000C35C222B32D13A33C25A03689B8C9BB288
:105150008021490184688C421ED0416D4C1C4465FD
:1051600013400B705A22835A013B9BB28352002298
:10517000002B21D10268136810490B4013600268AC
:1051800093682331FF318B4393606A232022C254FA
:1051900002F02EFD00220FE001690029DDD113404D
:1051A000426D1380436D02334365DBE70268936908
:1051B00008210B4393610222100010BDDFFEFFFFA8
:1051C00070B504000268D3691168180740D19806C9
:1051D00001D588060DD49568D80201D5680223D47C
:1051E0001A0601D50A062BD45B0601D54B062BD433
:1051F00070BD2000FFF7A2FFFAE75A074DD500283F
:105200004BD043E02000FFF799FF59E02000FFF763
:105210007CFCEDE72000FFF778FCE9E72000FFF7D2
:1052200074FC0023E366E3E780235B03136220231F
:105230006922A3540132A354200000F065F8D7E797
:105240002000FFF737FFD3E72000FFF769FFCFE724
:1052500095680120284003D1902676003142BBD0CA
:10526000DD0706D5CD0504D501251562E26E2A437A
:10527000E2669A07C1D500280FD022680225156280
:10528000E26E02352A43E2661D4206D022680425FA
:105290001562E26E023D2A43E2661A0709D58A06C4
:1052A00001D4002805D0226808201062E26E024373
:1052B000E266E26E002A9BD09B0601D58B06A1D444
:1052C000E36E1B0703D423689B685B06A6D520000A
:1052D000FFF722FB23689A6852069BD59A68402103
:1052E0008A439A60636E002B90D0064A5A63606EC0
:1052F000FCF7A7FB002800D17AE7606E436B984764
:1053000076E7C046654B0008704786239B00C3586C
:10531000002B05D085229200002199500020704773
:105320000220FCE710B587239B00C358002B0FD049
:10533000862292008458183AA05CFF2808D0054ABB
:10534000A25C9B682100984780239B00FF22E254C7
:10535000002010BD01020000432303800048704775
:105360000000002043230380014844307047C046BA
:105370000000002043230380014808307047C046E6
:10538000800000200A23038001484C307047C0464B
:105390008000002070B504008626B600855903F011
:1053A000D2F883239B00E850A359002B0AD0832313
:1053B0009B00E918083BE8581833E358DB68984726
:1053C000002070BD0220FCE770B505000C000978D4
:1053D00060230B402CD0202B0AD1E288002A09D16F
:1053E000607887239B00EB589B6800222100984738
:1053F000002070BDF933FF33C65849B200290BDADB
:1054000060780433EB589B6831009847E28831009C
:10541000280000F0A7FCEBE7627880239B00F254A1
:10542000E288074BF254E288310000F0B1FCDFE77C
:1054300063780A2BDCD10122024900F093FCD7E704
:10544000010200008C03002070B50400812103F0EC
:105450002AF80121200003F026F88221200003F021
:1054600022F886239B00E358002B0BD087239B0058
:10547000E3585B6898478625AD00605903F06EF8E5
:1054800000236351002070BD70B50400037C002B25
:1054900034D18025AD002B000222812102F0F7FFDC
:1054A0002B0002220121200002F0F1FF0823032239
:1054B0008221200002F0EBFF8720800003F04AF8F1
:1054C000050086239B00E05000282DD00433E358CC
:1054D0001B689847002385229200AB500432AB50E2
:1054E000237C002B16D081239B00EA58C53BFF3B51
:1054F0000121200003F01EF8002070BD402302228D
:10550000812102F0C4FF402302220121200002F089
:10551000BEFFCBE78033143AAA589B00012120003C
:1055200003F008F80020E8E70120E6E7002904D0AE
:1055300087239B00C150002070470220FCE7862390
:105540009B00C358822080001950842189005A5042
:105550000020704786239B00C258143BD150002086
:10556000704710B586239B00C258002A16D0037CD2
:10557000002B09D081239B00D258C53BFF3B012162
:1055800002F0D8FF002010BD8033812189005258DD
:105590009B00012102F0CEFF0020F4E70220F2E799
:1055A00010B5002816D085239B00C358002B03D0CC
:1055B00085239B000024C450002902D084239B0033
:1055C000C150FE235B000121C154027002F014FFA0
:1055D000002010BD0220FCE7002904D085239B0099
:1055E000C150002070470220FCE710B502F046FFD2
:1055F000002010BD10B585239B00C358002B05D09B
:105600001B689847431E9841400010BD0220FCE7EC
:1056100010B585239B00C3585B689847002010BDD8
:1056200070B5040082239B00C518280000F011F912
:10563000FA235B000122E250124BE25A163BE25081
:105640001033E15CEA3BFF3B0B40012B0FD0002BFA
:1056500007D0022B10D07F239943200002F02CFFAB
:1056600003E02900200000F013F9002070BD29009C
:10567000200000F0A9FAF8E72900200000F0C3FAA2
:10568000F3E7C0460E02000010B504001300002925
:1056900029D1FA2252008258032A01D0002010BDDD
:1056A000421DFF329168D26891420FD885239B003A
:1056B000C3581B69002B05D0FE225200825C032ACE
:1056C00000D19847200000F07BFBE7E7891A0530FE
:1056D000FF3081608A4200D90A0092B2190020008E
:1056E00000F066FBDAE785239B00C3589B69002B1B
:1056F000D4D0FE225200825C032ACFD19847CDE756
:1057000070B50400130000294ED1FA2252008258CD
:10571000022A06D080239B00E35C012B3FD00020AF
:1057200070BDC269056AAA421ED886692900300088
:10573000FAF770FD002906D1B54204D8FC235B00BE
:10574000E3589E421DD385239B00E358DB68002B62
:1057500006D0FE225200A25C032A01D12000984705
:10576000200000F039FBD5E7521BC26192B219004C
:1057700000F006FB002300220021200002F0DAFEE8
:10578000C8E70022200000F0FBFAFC235B000022A7
:10579000E25000230021200002F0CCFEBAE7802373
:1057A0009B000022E254BAE785239B00C3585B6943
:1057B000002BB4D0FE225200825C032AAFD198475E
:1057C000ADE770B5040040230022002102F05FFE27
:1057D000402588235B00E550D03B0022802120003B
:1057E00002F055FE2562FE235B000122E2541C33C9
:1057F000E358002B06D0217985239B00E3585B6892
:1058000020009847002070BD017400207047FE23DF
:105810005B00C15CFE22FF328154FA3AFF3AC25467
:1058200000207047FE23FF33C25C013BC2540020BE
:10583000704710B5FE235B00C35C032B01D0002032
:1058400010BD85239B00C358DB69002BF7D0984718
:10585000F5E70B7803704B784370CA7812028B78A7
:105860009B1843804A7912020B799B188380CA796E
:1058700012028B799B18C380704710B504008021F9
:1058800002F01AFE0021200002F016FE10BD0000FA
:1058900030B583B005000C004B78092B00D98BE1A3
:1058A0009B00C14AD3589F464A88130A99B20729D8
:1058B00000D999E09B00BD49CB589F46007C8423CA
:1058C0009B00EB581B686A46911D98476B46063350
:1058D0001B88002B00D173E1E288002A00D16FE120
:1058E000191C934200D9111C8AB26B46D980010061
:1058F000280000F037FA63E1037C002B09D18523EF
:105900009B00C3589B6A6A46901D984702234370C8
:10591000DCE785239B00C358DB6A6A46901D9847E5
:1059200002234370D2E7D3B2052B39D89A00A04B9B
:105930009B589F46007C84239B00EB585B686A461B
:10594000911D9847C2E7007C84239B00EB589B681D
:105950006A46911D9847B9E7007C84239B00EB5869
:10596000DB686A46911D9847B0E7007C84239B0062
:10597000EB581B696A46911D9847A7E7007C842372
:105980009B00EB585B696A46911D98479EE7007C37
:1059900084239B00EB589B696A46911D984795E7C5
:1059A0002100FFF76AFF0BE1037C002B07D1852361
:1059B0009B00C3585B6B6A46901D984786E72100A1
:1059C000FFF75BFFFCE0037C002B09D185239B00E4
:1059D000C3581B6B6A46901D98470723437075E7B1
:1059E0002100FFF74AFFEBE021002800FFF745FF09
:1059F000E6E08B88002B22D1CB88002B1FD1FD3312
:105A0000FF33C35C032B12D04B887F241C40FF2341
:105A10005B00C454210002F07BFD280000F0D0F9A7
:105A2000002C07D0FE235B000222EA54C8E0FFF7F7
:105A300024FFC5E0FE235B000122EA54C0E0210000
:105A40002800FFF71AFFBBE089785A4B197001292B
:105A50000AD8FE235B00C35C022B09D0032B1ED0A7
:105A60002100FFF70AFFABE02100FFF706FFA7E0E8
:105A7000002911D04160FE235B000322C254FFF7CE
:105A8000B9FD022803D0280000F09AF998E021001F
:105A90002800FFF7F2FE93E000F092F990E0002971
:105AA00011D0436899421FD0D9B2FFF7B1FD414BE5
:105AB000197869602800FFF79DFD02280FD02800A3
:105AC00000F07EF97CE0FE235B000222C25400233A
:105AD0004360FFF79DFD280000F072F970E021009F
