:020000040800F2
:1000000000400020D9860008598100085B81000863
:1000100000000000000000000000000000000000E0
:100020000000000000000000000000005D810008EA
:1000300000000000000000005F81000861810008EE
:1000400029870008298700082987000829870008D0
:100050002987000829870008298700086981000886
:1000600029870008818100082987000891810008FC
:10007000A18100082987000829870008298700082E
:100080002987000829870008298700082987000890
:100090002987000829870008298700082987000880
:1000A0002987000829870008298700082987000870
:1000B000B18100082987000829870008C18100084C
:1000C00010B5064C2378002B07D1054B002B02D02E
:1000D000044800E000BF0123237010BD700300201E
:1000E00000000000C0910008044B10B5002B03D0A5
:1000F0000349044800E000BF10BDC04600000000F6
:1001000074030020C0910008002243088B4274D37E
:1001100003098B425FD3030A8B4244D3030B8B4208
:1001200028D3030C8B420DD3FF22090212BA030C11
:100130008B4202D31212090265D0030B8B4219D3F2
:1001400000E0090AC30B8B4201D3CB03C01A524112
:10015000830B8B4201D38B03C01A5241430B8B425A
:1001600001D34B03C01A5241030B8B4201D30B0343
:10017000C01A5241C30A8B4201D3CB02C01A52416A
:10018000830A8B4201D38B02C01A5241430A8B422D
:1001900001D34B02C01A5241030A8B4201D30B0216
:1001A000C01A5241CDD2C3098B4201D3CB01C01A30
:1001B000524183098B4201D38B01C01A524143093A
:1001C0008B4201D34B01C01A524103098B4201D328
:1001D0000B01C01A5241C3088B4201D3CB00C01A95
:1001E000524183088B4201D38B00C01A524143080D
:1001F0008B4201D34B00C01A5241411A00D2014632
:10020000524110467047FFE701B5002000F0F0F8BA
:1002100002BDC0460029F7D076E7704703460B437E
:100220007FD4002243088B4274D303098B425FD3EF
:10023000030A8B4244D3030B8B4228D3030C8B421B
:100240000DD3FF22090212BA030C8B4202D3121201
:10025000090265D0030B8B4219D300E0090AC30BD6
:100260008B4201D3CB03C01A5241830B8B4201D383
:100270008B03C01A5241430B8B4201D34B03C01A6C
:100280005241030B8B4201D30B03C01A5241C30AE4
:100290008B4201D3CB02C01A5241830A8B4201D355
:1002A0008B02C01A5241430A8B4201D34B02C01A3F
:1002B0005241030A8B4201D30B02C01A5241CDD2E4
:1002C000C3098B4201D3CB01C01A524183098B422F
:1002D00001D38B01C01A524143098B4201D34B0118
:1002E000C01A524103098B4201D30B01C01A52417B
:1002F000C3088B4201D3CB00C01A524183088B4202
:1003000001D38B00C01A524143088B4201D34B00EA
:10031000C01A5241411A00D201465241104670475C
:100320005DE0CA0F00D04942031000D34042534061
:1003300000229C4603098B422DD3030A8B4212D321
:10034000FC22890112BA030A8B420CD38901921153
:100350008B4208D3890192118B4204D389013AD090
:10036000921100E08909C3098B4201D3CB01C01A65
:10037000524183098B4201D38B01C01A5241430978
:100380008B4201D34B01C01A524103098B4201D366
:100390000B01C01A5241C3088B4201D3CB00C01AD3
:1003A000524183088B4201D38B00C01A5241D9D2EB
:1003B00043088B4201D34B00C01A5241411A00D26C
:1003C0000146634652415B10104601D34042002B68
:1003D00000D54942704763465B1000D3404201B5E7
:1003E000002000F005F802BD0029F8D016E770479C
:1003F0007047C0468446081C6146FFE71FB500F001
:1004000055FB002801D40021C8421FBD10B500F0E3
:10041000D7FA4042013010BD10B500F047FB00286C
:1004200001DB002010BD012010BDC04610B500F05A
:100430003DFB002801DD002010BD012010BDC0469D
:1004400010B500F0E5FA002801DC002010BD012005
:1004500010BDC04610B500F0DBFA002801DA00201C
:1004600010BD012010BDC046F8B54746CE46430238
:100470005B0A4400C20F9C464800DD004B02240E7C
:100480005B0A000E80B5984626009146C90FDB0036
:10049000271A8A4229D0002F15DD00284AD1002BC7
:1004A00000D095E0ED08FF2C00D188E06B025B0ADC
:1004B000E6B25B02F605580A3043D20710430CBC83
:1004C00090469946F8BD002F00D087E0601CC0B26E
:1004D000012800DCB6E0EE1A720100D5C5E0002E5E
:1004E0003DD1002200260023E3E7002F00DC96E048
:1004F00000285DD0FF2C60D08022D20413431B2F34
:1005000000DDECE02022D21B18009340F8405A1E78
:1005100093410343ED186B017BD50134FF2C00D1CF
:10052000B7E0012207262A406B089A4D1D4015436B
:100530002E4029E0FF2CB5D08022D20413431B2F7C
:1005400000DDB2E02022D21B19009340F9405A1E70
:1005500093410B43ED1A6B015BD5AD01AE09300041
:1005600000F094FE05388640844265DC041B3300AD
:1005700020200134E340041BA640751EAE413343E6
:1005800007261D0000241E4001224B461A40002E63
:1005900004D00F232B40042B00D004356B0100D472
:1005A00080E70134E6B2FF2C2FD1FF26002380E73D
:1005B000002B52D1FF2C00D074E70A00ED08002D6B
:1005C000F3D08023DB032B435B025B0AFF2670E73B
:1005D000013F002FBED0FF2CB1D163E7002C47D0E4
:1005E000FF2869D08024E4047A4225431B2A00DDD9
:1005F000C5E02C002026D440B21A95406A1E9541D1
:1006000025435D1B04008946A5E7AB015B0A50E763
:10061000002401224B461A406B07BAD142E7002F53
:100620003BD10134E0B201284ADDFF2CBDD00726C2
:10063000ED186D082E40A7E70723574D241A3540C3
:100640001E40A1E7002C1BD1002D6ED1002B00D144
:100650009AE00A001D003C0024E7013F002F00D172
:1006600058E7FF2C00D04AE7A7E75E1B894676E7EC
:10067000002D1CD10A00FF281FD004001D0011E727
:10068000002D5DD1002B17D180230022DB03FF2634
:100690000FE70A00FF2600230BE7002C21D1002DD5
:1006A00066D1FF28E9D11D0087E7012352E77A1CB4
:1006B000A7D0FA43FF2899D10A001D00FF24F1E6D4
:1006C000002E21D1002D4FD0002B4CD0ED186B0106
:1006D0009ED5314B07362E4001241D4054E701239F
:1006E00018E7FF28DFD08024E4047F4225431B2F36
:1006F0004DDC2026F61B2C00B540FC406A1E9541BF
:100700002543ED18040006E7002DCCD0002B00D1C6
:1007100053E780216046C903084203D0404608429F
:1007200000D11D000121114047E7002B00D1B9E69F
:10073000EA1A500125D507265D1B2E40894623E77E
:10074000FF24002B00D1ADE680226046D203104288
:1007500004D04046104201D11D00894601224B467B
:10076000FF241A409EE62B00DD080A0000249DE6C7
:100770007A1CC6D0FF43FF28B9D11D001DE7012513
:100780003FE7151E00D044E70022002391E6012533
:10079000B7E7C046FFFFFF7DFFFFFFFBF8B55746F9
:1007A0004E464546DE464402E0B546008846640AA9
:1007B000360EC70F002E63D0FF2E24D08023E40016
:1007C000DB041C43002399469B467F3E434642463A
:1007D0005D02D20F5B006D0A1B0E9046924665D0FB
:1007E000FF2B55D080220021ED00D2047F3B154322
:1007F000F61A43464A467B400F2A00D98DE06D48E1
:10080000920082589746002C54D108239946063B03
:10081000FF269B46DAE70025534602291BD0032911
:1008200000D1BFE0012928D030007F30002820DD32
:100830006A0704D00F222A40042A00D004352A0176
:1008400003D530005C4A80301540FE2803DCAC0143
:10085000640AC2B201E0FF2200246402D205600AE9
:10086000DB07104318433CBC90469946A246AB4672
:10087000F8BD0122101A1B287CDD00220024ECE7C1
:10088000002C1DD104239946033B00269B469DE77F
:10089000FF3E002D20D1022143464A467B400A43B9
:1008A0000F2AD8D84548920082589746002D19D172
:1008B0000121F1E70C239946093BFF269B4685E77A
:1008C000200000F0E3FC7626431F9C400023764284
:1008D000361A99469B4679E74A4603231A439146BE
:1008E000032186E7280000F0D1FC431F36189D4005
:1008F000763600217DE780240023E403FF22ACE765
:1009000000258023DB031C4228D01D4226D12B4327
:100910005C02640A4346FF229FE762016C01A24227
:1009200024D21B210025013E012710006D0052003A
:10093000002801DB944201D8121B3D4301390029F4
:10094000F3D11400621E944125436DE7BA4659461F
:1009500025005346022900D061E77CE78023DB03B2
:100960001C436402640A3B00FF2276E7121B1A2133
:100970000125D9E79E362A00B5402C00C240651EED
:10098000AC411443620704D00F222240042A00D055
:100990000434620103D4A401640A00225DE7012249
:1009A00000245AE78024E4032C436402640AFF22F3
:1009B00053E7C04698920008FFFFFFF7D89200085F
:1009C00070B542004E024C0045026D0A120EC30F74
:1009D000760A240EC90FFF2A0FD0FF2C11D0012058
:1009E000A24200D070BDB542FCD18B420DD0002A8E
:1009F000F8D12800451EA841F4E70120002DF1D1CF
:100A0000EBE70120002EEDD1E9E70020EAE7C04640
:100A100070B54A004E02450244006D0A240EC30F11
:100A2000760A120EC90FFF2C15D0FF2A0ED0002C0B
:100A300015D1002A01D1002E1CD0002D14D08B42DC
:100A400027D00220013B1840013870BD002EEED0A7
:100A500002204042F9E7002DFAD1FF2A0ED0002AE9
:100A60000ED1002EEDD00BE001230139994308008F
:100A70000130EAE70020002DE7D0E2E7002EE7D1C1
:100A80008B42DED1944205DD0221581E0840013818
:100A9000DBE70024A24204DCB542D2D80020B542F4
:100AA000D3D2581E012398430130CEE730B542001F
:100AB00044024D02C30F4800640A120E6D0A000E74
:100AC000C90FFF2A12D0FF280CD0002A12D100280B
:100AD00019D1002D17D1002C2BD00220013B18403A
:100AE000013826E0002DF0D0022022E0002CFBD1BE
:100AF000FF281FD000281FD1002D1DD10220013B4F
:100B00001840013815E0002C0ED08B42E5D10022B0
:100B1000904204DCAC42E0D80020AC4209D2581E1E
:100B200001239843013004E001230139994308006F
:100B3000013030BD002DD7D18B42CED18242E7DDCE
:100B40000221581E08400138F3E7C046F0B54E4672
:100B500057464546DE46E0B543025B0A450083B092
:100B60000F1C99462D0EC60F002D57D0FF2D24D0F7
:100B70008020DB00C0041843002381469A469B4630
:100B80007F3D7C027A00FB0F640A120E984623D048
:100B9000FF2A4BD0E30080240020E4047F3A1C436A
:100BA000AD186B1C47460193534677403A000F2B14
:100BB00048D87D499B00CB589F46002B00D085E04C
:100BC00008339A46063B9B467C027A00FB0FFF25C2
:100BD000640A120E9846DBD1002C00D090E05246F9
:100BE00001231A4392460120DBE74C465846170082
:100BF000022824D0032800D1CFE0002200230128BE
:100C00004DD15802D205400AFF071043384303B0C4
:100C10003CBC90469946A246AB46F0BD002B5BD14A
:100C200004239A46033B00259B46AAE7FF35002C88
:100C300060D1524602231A4392460220B1E7FF22B6
:100C40000023DEE74B461B0C9C464B462604360C25
:100C5000180461463300220C6446000C43434E43A3
:100C60005043544380191A0C1218964203D980211C
:100C700049028C4664441B041B0C1004C0188301F9
:100C80005E1EB341800E1843130C1B199B010343D6
:100C90001C00230179D5012362081C401443019AEA
:100CA0007F32002A4DDD630704D00F232340042B3D
:100CB00000D00434230103D53C4B019A1C40803200
:100CC000FE2ABCDCA3015B0AD2B29AE70C239A4647
:100CD000093BFF259B4654E7180000F0D7FA4A4627
:100CE000431F76259A4000236D4291462D1A9A465D
:100CF0009B4646E7524603231A439246032050E799
:100D0000200000F0C3FA431F2D1A9C40763D0020BE
:100D100047E780230027DB03FF2272E7424666E7AE
:100D20004C463200584662E780234A46DB031A42AB
:100D300022D01C4220D123435B025B0A4746FF229C
:100D40005FE701239A1A1B2A21DC23000199D34073
:100D50009E318C401A0023005C1EA34113435A07A6
:100D600004D00F221A40042A00D004335A0111D4AF
:100D70009B015B0A002244E780234A46DB031343BE
:100D80005B025B0A3700FF223BE7019587E7002201
:100D9000002336E70122002333E78023DB032343CC
:100DA0005B025B0AFF222CE718930008FFFFFFF7A6
:100DB000F8B54746CE464400C20F80B54702480208
:100DC000400A8446664648007F0A240EF600250045
:100DD0009046FB00000EC90FB146FF2800D185E008
:100DE00001267140261A914257D0002E43DD00287B
:100DF00000D07FE04946002900D1AAE0013E002E44
:100E000000D0F7E05B1A5A0100D48BE09B019C09EB
:100E1000200000F03BFA05388440854200DDD3E035
:100E2000451B230020200135EB40451BAC40621ED2
:100E300094412343072400251C40012241460A40D7
:100E4000002C04D00F211940042900D0043359018B
:100E500000D480E00135ECB2FF2D00D0A3E0FF24E8
:100E600000235B02E405580AD207204310430CBC60
:100E700090469946F8BD002E74D1601CC0B201287E
:100E800000DCA7E04A469C1A620100D5B6E0002CBF
:100E9000BED1002200240023E3E7002E00DC85E021
:100EA000002846D0FF2C49D080224846D204104367
:100EB000814601221B2E09DC20204C46801B8440E9
:100EC0004A462000F240441EA04102439B185A01AA
:100ED00028D50135FF2D00D1A8E00122072494492F
:100EE0001A405B080B4013431C40A6E7002E00D0BD
:100EF00078E775E7FF2C54D080224946D20411438D
:100F0000894601221B2E09DC20214846891B884086
:100F10004A460100F240481E81410A439B1A5A0189
:100F200000D573E7012241460A40590700D089E7FE
:100F300011E04846002858D1FF2C0CD1DB08002BCB
:100F400000D18CE78020C00303435B025B0AFF24CF
:100F500087E7FF2C25D0DB08FF2DF0D05B025B0A72
:100F6000ECB27EE7002C4DD0FF2818D08024E4049A
:100F7000724223431B2A00DDC4E01C002025D4401C
:100F8000AA1A93405A1E934123434A460500D31A96
:100F9000884638E7721CF8D0F243FF28EAD10A00ED
:100FA0004B46FF25D7E79B015B0A5AE7002E41D14C
:100FB000651CE9B2012945DDFF2D00D14FE707246B
:100FC0004B445B081C4038E707225A4B2D1A23403C
:100FD000144032E7002C1DD1002B7AD14B46002B58
:100FE00000D191E00A000025B5E7013E002E19D19D
:100FF0004B446CE7FF2C84D1FF25ACE74A4688467A
:10100000D41A05E7002BC5D10A00FF28C8D0050077
:101010004B46A0E7002B49D14B46002B77D00A0066
:10102000FF2598E7FF2C00D043E787E70A00FF245D
:10103000002316E7002C15D1002B57D1FF28E6D14D
:101040004B467BE7002C20D1002B57D04946002986
:1010500053D04B445A0168D50724364A1C40012519
:101060001340EAE6FF28EBD08022D20476421343F5
:101070001B2E53DC2025AD1B1A00AB40F2405C1E3A
:10108000A34113434B44050021E7002BD8D0494628
:10109000002900D152E78021C9030F4200D14DE75A
:1010A0006046084200D049E74B4647E74846FF25DF
:1010B000002800D14FE78022D203174204D06046B7
:1010C000104201D14B46884601224146FF250A4085
:1010D00041E7484600281FD01A1A500120D54A4639
:1010E0000724D31A1C4088460025A6E6741CC9D0E4
:1010F000F643FF28BCD14B4620E799464B460025D6
:10110000DB082BE7012340E700220023A9E6802328
:101110000022DB03FF24A4E600251CE70123B1E73E
:10112000002AF1D013000025FCE60025FAE6C046AF
:10113000FFFFFF7DFFFFFFFB41024200C30F490A93
:10114000120E00207E2A0DD99D2A0CD88020000482
:101150000143952A0ADC9620821AD1404842002B8E
:1011600000D108007047034A9818FBE7963A91406F
:10117000F4E7C046FFFFFF7F70B500283DD0C317DE
:10118000C5185D40C40F280000F080F89E22121A96
:10119000962A07DCD2B2082833DD08388540680279
:1011A000400A23E0992A0BDD052329001B1AD940A8
:1011B00003001B339D402B005D1EAB4119430D0006
:1011C000052801DD431F9D402B000F490B406E0792
:1011D00009D00F263540042D05D004335D0102D51A
:1011E0009F220B40121A9B01580AD2B24002D2052C
:1011F000400AE4071043204370BD00240022002071
:10120000F4E76802400AF1E7FFFFFFFB70B5041E38
:1012100034D000F03BF89E22121A962A07DCD2B294
:1012200008282EDD083884406002400A21E0992A0F
:1012300009DD030021001B3399404B1E9941052312
:101240001B1ADC400C43052801DD431F9C40230092
:101250000D490B40650709D00F252C40042C05D003
:1012600004335C0102D59F220B40121A9B01580ADD
:10127000D2B24002D205400A104370BD00220020C5
:10128000F7E76002400AF4E7FFFFFFFB1C210123A0
:101290001B04984201D3000C10391B0A984201D359
:1012A000000A08391B09984201D30009043902A237
:1012B000105C40187047C04604030202010101019E
:1012C000000000000000000010B5040002F05EFB0A
:1012D000FA218900FEF718FF00F020FB0120002210
:1012E0002100404200F0E0FA002010BD10B5064A8F
:1012F000136810210B4313600020FFF7E5FF06F091
:10130000ADFC002010BDC04600200240014B186813
:101310007047C046C005002030B583B004000023EC
:1013200001930368996803220A40012A0ED0996844
:10133000204A114212D19A6801210A439A601E4B39
:1013400018681E49FEF7E0FE019015E01A68D20702
:101350002DD4DA681204EAD5002008E0636C10226C
:1013600013436364A36C0F3A1343A364012003B0D7
:1013700030BD019B013B0193019B002BF9D1FFF78D
:10138000C5FF050023681B68DB070ED4FFF7BEFF0F
:10139000401B0228F6D9636C102213436364A36CCC
:1013A0000F3A1343A3640120E1E70020DFE70020A8
:1013B000DDE7C046170000803801002040420F00E2
:1013C00070B5041E00D1B0E0436C002B7DD0636C7F
:1013D000DB0600D5A3E021688B6804221A4000D008
:1013E0009DE0636C524803400630FF300343636462
:1013F000886803230340012B6DD0CB6818208343FA
:10140000A0680343CB6021680B699B009B08606860
:1014100003430B612168CB6846480340CB60A36956
:101420009B03E169C9030B43216A48030343606BD3
:10143000012857D0802040010343E068034320691E
:10144000022851D01343226B52001343626A012ACF
:101450004CD0A26AC221FF318A4202D0E16A0A431B
:1014600013432168CA681A43CA60A26B80214905E8
:101470008A420DD0012A0BD0022A09D0032A07D0B4
:10148000042A05D0052A03D0062A01D0072A0AD14A
:101490002068416907229143416120684169A56B39
:1014A0002A400A4342612268D26823490A409A428C
:1014B0002BD0636C12229343023A13436364A36CF0
:1014C0000F3A1343A36401202EE083644022835427
:1014D00006F0DCFB7BE70B68DB079BD4CB681B04C7
:1014E00098D48AE71000A7E70422ABE7002903D1CC
:1014F000802252021343ACE7626C20210A436264EB
:10150000A26C1F390A43A264A3E70023A364636C9F
:1015100003229343023A13436364002004E0636CA4
:10152000102213436364012070BD0120FCE7C04614
:10153000FDFEFFFF1902FEFFE7FF3F83F8B5040041
:101540000E00170003689B685B073ED44023C35C12
:10155000012B3CD040230122C254C369012B32D05D
:10156000FFF7DAFE051E2CD1636C1A4A1A4080235D
:101570005B00134363640023A3644022A354E36B22
:10158000154A9A62E36B154ADA62E36B144A1A63EE
:1015900023681C221A602268536810210B43536091
:1015A0002268D3680F390B43D360216840313B0078
:1015B0003200E06B00F056FA2268936804210B4376
:1015C00093602800F8BD0025CEE70225F9E7022543
:1015D000F7E7C046FEF0FFFFE515000857160008C4
:1015E0006516000810B5436A5A6C5021114203D0A9
:1015F000DB6B1B6B984710BD596C802292000A432D
:101600005A641A68D068C0210901084213D1196AC6
:10161000002910D1116809070DD5916849070ED42A
:1016200051680C20814351605A6C09490A400431C9
:10163000FF310A435A64180005F0A8FADBE75A6C38
:1016400020210A435A649A6C1F390A439A64F2E7CC
:10165000FEFEFFFF704710B5406AFFF7FBFF10BDAD
:101660007047704710B5406A436C4022134343648F
:10167000836C3C3A13438364FFF7F3FF10BD000013
:1016800010B5040003681A68520702D55A68520759
:1016900005D41A68120729D55A68120726D5626C34
:1016A000D20604D4616C802292000A436264D96835
:1016B000C0221201114213D1226A002A10D11A68E5
:1016C00012070DD59A68520731D45A680C218A4303
:1016D0005A60636C204A13400432FF321343636440
:1016E000200005F053FA23680C221A6023681A6858
:1016F000120602D55B681B0622D423681A68D2063C
:1017000014D55A68D20611D5626B012A02D0DA6864
:10171000D20708D5A26C02210A43A26410221A60E3
:101720002000FFF79EFF236810221A6010BD636C33
:10173000202213436364A36C1F3A1343A364CFE7CF
:10174000626C80235B02134363642000FFF788FF11
:10175000236880221A60D0E7FEFEFFFF30B583B019
:101760000400002301934033C35C012B00D18AE0C5
:1017700040230122C25403689A68520775D4434A31
:101780004868904256D09A6A01200D68A8400243EA
:101790009A62A36B8022520593421ED0012B1CD06B
:1017A000022B1AD0032B18D0042B16D0052B14D0E3
:1017B000062B12D0072B10D0226850690723034054
:1017C0008868984209D0506907239843506120687F
:1017D00042698D682B40134343610B681A00103A2D
:1017E000022A4CD82A4A1268102B0ED0112B09D08D
:1017F00080235B041343264A13600B68102B07D029
:10180000002037E08023DB03F4E780231B04F1E7AB
:10181000204B18682049FEF777FC83001818430016
:10182000019302E0019B013B0193019B002BF9D145
:1018300000201FE09A6A01200D68A84082439A6246
:101840000B681A00103A022A1BD8114A1268102B92
:1018500009D0112B05D0114B13400D4A1360002005
:1018600008E00F4BF8E70F4BF6E7436C20221343D9
:101870004364012040230022E25403B030BD002025
:10188000F8E70020F6E70220F7E7C0460110000065
:10189000082701403801002040420F00FFFFFFFEF3
:1018A000FFFFBFFFFFFF7FFF70B5002811DB84083B
:1018B000134DC034A400625903231840C000FC3308
:1018C0001E008640B24389010B408340134363519D
:1018D00070BDC0B20F220240083A92080632920050
:1018E000084BD3185D6803242040C000FF22140079
:1018F0008440A54389010A4082402A435A60E7E7B1
:1019000000E100E000ED00E01F2318401E3B834093
:10191000014A13607047C04600E100E001380A4BFD
:1019200098420FD8094A50600948036A1B021B0AF3
:10193000C02109060B430362002393600733136041
:10194000002070470120FCE7FFFFFF0010E000E0EF
:1019500000ED00E010B5041E0ED00379002B07D077
:10196000022323710023236101332371002010BD62
:10197000437106F0F3F9F3E70120F8E770B5437916
:10198000012B14D0012545710223037106683368C9
:10199000084C9440A3431C000B6849680B439340D8
:1019A00023433360057100234371002070BD022082
:1019B000FCE7C046FE0F000070B5C56B0124066C45
:1019C000B4406C60046863604368102B04D0036803
:1019D00099600368DA6070BD03689A600368D96033
:1019E000F9E7000010B504000368064A9446634412
:1019F00018001421FEF788FB80002064024BE3638B
:101A000010BDC046F8FFFDBF0000024070B5041EC7
:101A100024D021250223435501680B68104A1A403F
:101A2000436880680343E0680343206903436069B7
:101A30000343A0690343E069034313430B602000A1
:101A4000FFF7D0FF0023A362E36223636363A36312
:101A5000012262551F32A354002070BD0120FCE713
:101A60000FC0FFFF70B504002020205C012832D099
:101A70002020012525540130205C012804D020239A
:101A80000022E254022070BD203001352554002090
:101A9000A063256828680126B04328602000FFF76E
:101AA0008BFFE36A002B0BD0226813680E210B43D7
:101AB00013602268136801210B4313600020E2E7E2
:101AC000226813680A210B431360226813680639E1
:101AD0008B431360EDE70220D5E710B52123C35CEB
:101AE000022B03D004238363012010BD0268136816
:101AF0000E218B43136001680A6801239A430A6030
:101B0000C26B1900046CA1405160212283541F3321
:101B10000022C254436B002B02D098470020E4E718
:101B20000020E2E770B5C36B1A6804682568016C91
:101B300004238B401A4212D06B0710D523689B06F2
:101B400003D42368042293432360C26B0423016CF3
:101B50008B405360C36A002B00D0984770BD0223AE
:101B60008B401A4218D0AB0716D523689B0606D4C3
:101B700023680A22934323602123093AC254C26B8B
:101B80000223016C8B40536020230022C254836ADD
:101B9000002BE3D09847E1E708238B401A42DDD0C1
:101BA0002B07DBD523680E2293432360C26B0123EE
:101BB0001900046CA14051608363212283541F33B8
:101BC0000022C254036B002BC8D09847C6E7000020
:101BD00010B5054B0022DA61044A1369012423433E
:101BE0001361018010BDC046C805002000200240DE
:101BF0000C4BDB68DB0613D50B4AD36902210B4380
:101C0000D3611023074AD268520706D50649CA692C
:101C100001200243CA6104221343024AD360704781
:101C20000023EFE700200240C8050020064B1B6997
:101C30001B0606D5044B054A5A60054A5A60002027
:101C400070470120FCE7C0460020024023016745A1
:101C5000AB89EFCD034A136980210B431361002048
:101C60007047C0460020024070B50400FFF74EFBED
:101C70000500134BDB68DB070AD5631CF9D0002C89
:101C800019D0FFF743FB401BA042F2D9032011E01B
:101C90000B4BDB689B0602D5094B2022DA60084B10
:101CA000DB68DB0603D4064BDB685B0705D5FFF773
:101CB0009FFF012070BD0320FCE70020FAE7C0462B
:101CC00000200240F0B5C64600B504000D00904665
:101CD0001E00214B1B7E012B3BD01F4B01221A768D
:101CE0001E48FFF7C1FF00282DD1012C06D0022C81
:101CF00002D0042700241BE00227FBE70127F9E7B5
:101D00002022D21A310091400A004146D9401143A5
:101D100089B24019FFF75CFF1048FFF7A5FF104A92
:101D2000136901218B43136100280CD10134E4B203
:101D3000BC4208D260002301202252429A18DFD40C
:101D40003100D140E4E7044B00221A7604BC9046EF
:101D5000F0BD0220FAE7C046C805002050C30000CD
:101D600000200240064B0022DA61064B1A6904216A
:101D70000A431A611A693C310A431A617047C04626
:101D8000C805002000200240064B0022DA61064B05
:101D90001A6902210A431A6158611A693E310A43DD
:101DA0001A617047C80500200020024070B5050088
:101DB0000E00244B1B7E012B41D0224B01221A76B0
:101DC0000368012B22D02048FFF74EFF002831D1B5
:101DD00001235B4233606C680130AB68DB026A68E8
:101DE00094466344A34226D92000FFF7CDFF16484E
:101DF000FFF73AFF154A136902218B43136100284C
:101E000016D180231B019C466444E6E70E48FFF789
:101E10002BFF002801D001200DE0FFF7A3FF0A48A7
:101E2000FFF722FF094A136904218B43136102E083
:101E3000346000E00120034B00221A7670BD0220BE
:101E4000FCE7C046C805002050C300000020024047
:101E5000F0B5C64600B582B0002338E0042600E0A5
:101E60000026AE4035003D430234A400574EA55134
:101E7000574C25684246D4432E0026404A68D20378
:101E800002D5424615432E00514D2E606D682E003E
:101E900026404A68920302D5424615432E004C4D17
:101EA0006E60AD682E0026404A68D20202D54246D6
:101EB00015432E00464DAE60ED682C404A689202F4
:101EC00002D542462A431400414AD46001330A68CD
:101ED0001400DC4076D001259D402A409046F5D084
:101EE0004C68022C01D0122C0ED1DC080834A4005E
:101EF000275807261E40B6000F22B24097430A69B2
:101F0000B24016003E43265002685F0003242600BC
:101F1000BE40F643324094464A681440BC40624694
:101F2000144304604C68621E012A03D9112C01D0AD
:101F3000122C10D184683440A446CC68BC40624660
:101F4000144384604468AC434A6812090125154073
:101F50009D4025434560C46826408C68BC4034439E
:101F6000C4604A68D200B1D51A4DAE690124264337
:101F7000AE61AD692C400194019C9C08A51CAD008C
:101F8000124EAF5903261E40B5000F26AE40B74390
:101F90009026F605B04200D162E70F4EB0420BD05A
:101FA0000E4EB0420AD00E4EB04209D00D4EB04295
:101FB00000D153E7052654E7012652E7022650E7F1
:101FC00003264EE702B004BC9046F0BD000001407D
:101FD00000040140001002400004004800080048CE
:101FE000000C00480010004803690B4201D100209A
:101FF00070470120FCE7002A01D1816270478161AE
:10200000FCE7000010B5054B5B69184200D110BD1C
:10201000024B586104F0BAFCF9E7C04600040140E5
:1020200070B5041E58D0EA23FF33C35C002B05D0E3
:10203000EA23FF330322E254002218E0E933FF339E
:102040000022C25406F074F9F2E7D100891A8B001D
:10205000E318190029310120087001390A701800AD
:102060002B300021017059639963D9630132606894
:102070009042EAD8002214E0D100891A8B00E318BC
:102080001D000A35FF3500212970013D2A700335F6
:10209000297009352960043529601D33FF33196023
:1020A00001329042E8D8402301222168CA5200221E
:1020B0002168CA524421206842520C3120684252A1
:1020C000064A2168CA5200221C3BE2540122EA233C
:1020D000FF33E254002070BD0120FCE700BFFFFF8A
:1020E000016858228B5A034803439BB28B5200204D
:1020F0007047C0460080FFFFF4235B00C35C012BE8
:1021000013D0F4235B000122C25400290AD19D3B65
:10211000FF3B7F320168CA52F4235B000022C254A5
:10212000002070472423C154F6E70220F9E700009D
:10213000F0B54DB2002D65DB7F240C40E600361B68
:10214000B4000934FF3404197F2631402170ED0FAB
:102150006570E260E370F4235B00C35C012B00D187
:1021600075E1F4235B000122C254E378012B00D116
:1021700074E0002B4ED0022B59D0032B61D0227873
:10218000930001688C4663441988B24D29400A4384
:10219000B1490A431A80A37A002B00D0B5E06378D6
:1021A000002B00D167E0A28805685023EB5A217804
:1021B000C9005B185B198021C9008C46634401216A
:1021C0008A431A8023789B000268944663441A88E5
:1021D000510604D59F490A40A0490A431A80227833
:1021E000920003689C46624413889D490B4020215D
:1021F0004B4099490B431380F4235B000022C254E7
:102200000020F0BD7F240C40E600361BB4002834CB
:10221000041999E723789B000268944663441A885E
:1022200090491140802292000A431A80A7E7237840
:102230009B000268944663441A888A490A401A80BF
:102240009DE723789B000268944663441A88854979
:102250001140C022D2000A431A8090E723789B00E5
:102260000268944663441A887E4911408022D20055
:102270000A431A8083E7A28805685026AB5B217861
:10228000C9005B185B1978498C46634401218A4375
:102290001A8001688B5B2278D2009B185B18734A06
:1022A00094466344E1683E2926D94A0992B2C90698
:1022B00001D1013A92B2920292B26D490A431A8058
:1022C00023789B000268944663441A88510404D51D
:1022D00060490A4067490A431A8023789B000268D4
:1022E000944663441988644A1140C02292015140C7
:1022F000594A0A431A807FE74A0892B2C90701D5B2
:10230000013292B292021A80DAE723789B000268C7
:10231000944663441A8859491140594A0A431A801D
:10232000E28805685027EB5B2178C9005B185B19D0
:102330008021C9008C4663440126B2431A80228959
:102340000568EB5B2178C9005B185B1946498C4630
:102350006344B2431A806378002B3DD123789B00FD
:102360000268944663441A88510404D539490A40E6
:1023700040490A431A8023789B00026894466344CC
:102380001A88510604D533490A4034490A431A8051
:1023900023789B000268944663441A882D491140B3
:1023A0002E4A0A431A802178890003689C466144BA
:1023B0000B88314A1A40C0239B015340264A1343DD
:1023C0000B8023789B0001688C4663441988244C59
:1023D00021400A431A800FE723789B000268944645
:1023E00063441A88510404D51A490A4021490A4312
:1023F0001A8023789B000268944663441A88510629
:1024000004D514490A4015490A431A8023789B00D1
:102410000268944663441A880E491140154A0A43DB
:102420001A802178890003689C4661440B880C4A15
:102430001340094A13430B8023789B0001688C46A4
:10244000634419880C4C21400A431A80D4E60220C8
:10245000D7E6C0460F0F00008080FFFFC080FFFF5F
:10246000BF8FFFFF8F89FFFF0404000006040000F8
:102470000080FFFF80C0FFFF8FBFFFFF0F0E000037
:102480008081FFFF10B54AB2002A3ADB7F230B4060
:10249000DC00E41AA3000933FF33C3187F24214072
:1024A0001970D20F5A70F4225200825C012A00D1B6
:1024B000C1E0F4225200012181549A7A002A41D1CC
:1024C0005A78002A25D01A78920001688C46624416
:1024D00011884C0604D5594C2140594C2143118098
:1024E0001B789B000268944663441A885549114042
:1024F000554A0A431A80F4235B000022C25400208C
:1025000010BD7F230B40DC00E41AA3002833C3185E
:10251000C4E71A78920001688C46624411884C0422
:1025200004D5464C2140494C214311801B789B0027
:102530000268944663441A8845491140424A0A4356
:102540001A80D8E75A78002A3AD11A78920001689E
:102550008C46624411884C0404D5384C21403B4CD5
:10256000214311801A78920001688C4662441188D8
:102570004C0604D5314C2140314C214311801A784E
:10258000920001688C46624411882C4C0C402C4906
:10259000214311801C78A400026894466444228878
:1025A0002B490A4028490A4322801B789B00026875
:1025B000944663441A88234C2240114319809AE7B9
:1025C0001A78920001688C46624411884C0404D544
:1025D0001A4C21401D4C214311801A789200016849
:1025E0008C46624411884C0604D5144C2140144C8E
:1025F000214311801A78920001688C466244118848
:102600000E4C0C401149214311801C78A400026833
:102610009446644422880B490A400B490A432280AD
:102620001B789B000268944663441A88084C224039
:10263000114319805FE7022062E7C0460F0F0000D8
:10264000C080FFFFBF8FFFFF8080FFFF80C0FFFFC4
:102650008FBFFFFF70B57F242140CD006D1AAC0005
:10266000041925001935FF352A6022001D32FF327A
:102670001360083500222A60173D2A7022000932B3
:10268000FF3211701534FF342268934240D9CD00D7
:102690006D1AAC0004191D34FF349B1A2360CC0062
:1026A000641AA3001C00C3181333FF331B78002BDC
:1026B00041D105685033EB5A04190934FF342478AA
:1026C000E4001B195B195E4CA44663443E2A29D9D9
:1026D0005409A4B2D20601D1013CA4B2A402A4B20E
:1026E000584A14431C800368CA00511A8A00801893
:1026F0000930FF30027892009B181988524A114025
:10270000C02292015140514A0A431A80002070BDF4
:10271000CC00641AA20082181D32FF32002414601B
:102720001A00BCE75408A4B2D20701D50134A4B200
:10273000A4021C80D7E7CC00641AA3001C00C318B5
:102740000A33FF331B78002B23D105685033EB5A33
:1027500004190934FF342478E4001B195B193C4C3C
:10276000A44663443E2A0BD95409A4B2D50601D12C
:10277000013CA4B2A402A4B2324D2C431C800AE056
:102780005408A4B2D50701D50134A4B2A4021C8018
:1027900001E0012B24D0CC00641AA3001C00C31854
:1027A0000A33FF331B78002B35D105685033EB5AC1
:1027B00004190934FF342478E4001B195B19204CF8
:1027C000A44663443E2A1DD95409A4B2D20601D1BD
:1027D000013CA4B2A402A4B21A4A14431C8082E7AA
:1027E00005684F33EB5ACE00761AB4000419093449
:1027F000FF342478E4001B195B19154CA44663448C
:102800001A80C8E75408A4B2D20701D50134A4B293
:10281000A4021C8067E7012B00D064E705684F33F2
:10282000EB5ACE00761AB40004190934FF34247828
:10283000E4001B195B19024CA44663441A8052E75A
:10284000060400000080FFFF8FBFFFFF8080FFFFB6
:10285000020400007F231940CB00591A8B00C018D6
:102860002130FF300088704710B5F4235B00C35C53
:10287000012B4DD0F4235B000122C2544CB2002C3A
:1028800020DBCA00521A93000933FF33C318012218
:102890009A707E3211401970E40F5C7000291AD1D1
:1028A000890003689C4661440A881A4B1A401A4BF7
:1028B0005A401A4B13430B80F4235B000022C2548E
:1028C000002010BD6A3BFF3B0B40DA00D21A930098
:1028D0002833C318DBE7002C0CD0890003689C4622
:1028E00061440B880E4A1340102253400B4A134395
:1028F0000B80E1E7890003689C4661440A88094B24
:102900001A4080235B015A40044B13430B80D3E7EA
:102910000220D6E7BFBFFFFF101000008080FFFF3E
:10292000BF8FFFFF8FBFFFFF10B54AB2002A38DB11
:10293000CC00641AA3000933FF33C31800249C7031
:102940007F3421401970D20F5A70F4225200825CF9
:10295000012A4AD0F4225200012181545A78002AD7
:1029600027D01A78920001688C46624411884C0680
:1029700004D51F4C21401F4C214311801A7892002E
:1029800003689C46624413881B490B4030214B402E
:102990001A490B431380F4235B000022C254002029
:1029A00010BD7F230B40DC00E41AA3002833C318BA
:1029B000C4E71A78920001688C46624411884C047E
:1029C00004D50B4C21400E4C214311801B789B00F9
:1029D00002689446634419880A4A1140C022920151
:1029E0005140064A0A431A80D5E70220D8E7C0467C
:1029F0000F0F0000C080FFFFBF8FFFFF8080FFFF31
:102A000080C0FFFF8FBFFFFF10B501335B081218B6
:102A10008020C0008446624407E008784C78240295
:102A2000044314800231013B0232002BF5D110BD6A
:102A3000F8B505007F240C40E000001B81006918F8
:102A40008A63CB6300220A640A00293201201070D5
:102A5000013A14704F6BBB4233D9DB1BCB63E200EE
:102A6000121B93001A00EB1832331B78002B30D066
:102A70002868E200121B9300EB1828331B789A0099
:102A8000825A520674D5E600361BB200AA182932C3
:102A90001278002A3BD15032825ADB00D318181822
:102AA000614B9C4660443E2F28D97B099BB2FA06B5
:102AB00001D1013B9BB29B029BB25C4A1343038052
:102AC00027E0E100091B8A00AA180021D1631F003A
:102AD000C5E7BFB2AE18B28D3B00B16B2868FFF7F7
:102AE00093FF2A685023D35A28363178C9005B18DF
:102AF0009B184F4A944663441F8082E07B089BB238
:102B0000FA0701D501339BB29B02038001E0012A41
:102B100024D0E200121B9300EB181A8EBBB2E10026
:102B2000091B8E00AE19B16B2868FFF76DFF2936BF
:102B30003378002B55D0012B63D1E200121B930098
:102B4000EB1828331B789B002A68944663441A8844
:102B500038491140384A0A431A8052E04F32825AAB
:102B6000DB00D3181818304B9C4660440780D0E730
:102B7000E600361BB200AA1829321278002A1ED1AC
:102B80005032825ADB00D3181818294B9C466044F7
:102B90003E2F0BD97B099BB2FA0601D1013B9BB2B8
:102BA0009B029BB2214A134303800AE07B089BB23D
:102BB000FA0701D501339BB29B02038001E0012A91
:102BC00005D0E200121B9300EB18DA8DA6E74F3216
:102BD000825ADB00D3181818154B9C4660440780B6
:102BE000EFE7E200121B9300EB1828331B789B00E1
:102BF0002A68944663441A880E4911400F4A0A43D2
:102C00001A802A68E1000C1BA300ED1828352B78E8
:102C10009B00D21813880A490B4030214B400949C8
:102C20000B4313800020F8BD060400000080FFFF66
:102C3000020400000F0F000080C0FFFFC080FFFFF4
:102C4000BF8FFFFF8080FFFF30B55D081218802026
:102C5000C0008446624406E014880C70240A4C705C
:102C6000013D02320231002DF6D1DB0701D5138878
:102C70000B7030BDF0B583B0050001AB00221A80A7
:102C800028684423C35A9BB26A46D3801BB2002BE8
:102C900000DB39E26B46DC880F231C4000D0B5E036
:102CA0006B4606331B88DB064BD5028801AB1A80C6
:102CB0001B881B0575D401AB1B881BB2002BDFDA08
:102CC0000388CA4A1340038028685023C35A8422C9
:102CD0005200AA5CD2009B181B18C54A9446634454
:102CE0001B889B059B0D2A000932FF329361002B44
:102CF00000D077E00021280005F044FB2B6850222B
:102D00009A5A9A18BA4B9C4662442B000933FF33F7
:102D1000D9683E2971D94B099BB2C90601D1013B43
:102D20009BB29B029BB2B3490B43138029680A886C
:102D3000B14B1A40C0239B015A40B04B13430B8048
:102D40009EE70388AE4A1340038029685023CB5A7C
:102D50002822AA5CD2009B185B18AA4A94466344B6
:102D60001B889B059B0D2B64AA6B94466344AB6345
:102D70000021280005F015FB2423EB5C002B00D17B
:102D80007EE7EB6B002B00D07AE72422AB5C80213E
:102D900049420B43DBB2CC31286843520023AB5489
:102DA0006EE75023C35A84225200AA5CD2009B18BB
:102DB0001B188F4A944663441B889B059B0D2A0071
:102DC0000932FF3293612900ED31FF319288FFF71C
:102DD0003BFF2A68138885490B401380280005F0C3
:102DE000C7FA4DE7140092882169FFF72DFF236988
:102DF000A2699446634423617CE74B089BB2C907F0
:102E000001D501339BB29B0213808FE7A700C01945
:102E1000028801AB1A801B881BB2002B31DB01AB8F
:102E20001B881B0600D42BE72B689C4667443B8815
:102E3000734A13403B80E200121B93001A00EB1808
:102E400032331B78002B00D0E2E028685033C35A9D
:102E5000AA18110028310978C9005B181B186949A4
:102E60008C4663441B889B059B0D136400D1FDE0D9
:102E7000E200121B910069188A8D896BFFF7C4FD6F
:102E8000F4E05A4B1A400280E200121B93001A0031
:102E9000EB181333FF331B78002B1DD128685033F8
:102EA000C35A1100AA180932FF321278D2009B18B7
:102EB0001B184F4A944663441E88B605B60D34D09D
:102EC0006B181A000D32FF3212881933FF3319685C
:102ED0003300FFF7B9FE28E02868E200121B9300D8
:102EE000EB180933FF331B789A00825A520456D5E7
:102EF0005022825ADB00D3181B18424A944663447E
:102F00001E88B605B60D3BD1E200121B9300EB18EC
:102F10000933FF331B789B002A68944663441A8860
:102F200039491140394A0A431A803100E200121B24
:102F30009300EB1818002130FF30026892190260EC
:102F40001A001932FF3210688446664416601D3339
:102F5000FF331B68002B08D0E200121B90002818DA
:102F60001530FF300268914234D2E200121B930008
:102F7000EB180933FF331978280005F003FA4EE700
:102F8000E200121B9300EB181A000F32FF32128876
:102F90001933FF3319683300FFF756FEB4E75022A8
:102FA000825ADB00D3181B18114A944663441E88CA
:102FB000B605B60DA8D0E200121B9300EB181A005C
:102FC0001132FF3212881933FF3319683300FFF7CB
:102FD0003BFE99E7E100091B8A00AA180932FF327B
:102FE000117832002800FFF735FB18E78F0F00003B
:102FF000060400000080FFFF8FBFFFFF8080FFFFFF
:103000000F8FFFFF020400000F0F0000C080FFFFC2
:103010002868E200121B9300EB1828331B789A00F3
:10302000825A52064DD55022825ADB00D3181B1803
:10303000374A944663441B889B059B0DE100091B9E
:103040008A001100AA181364002B34D1E200121B6D
:103050009300EB1828331B789B002A68944663443E
:103060001A882C4911402C4A0A431A802868502398
:10307000C25AE100091B8B00EB18190028310978AE
:10308000C9005218121822498C46624412889205CF
:10309000920D1A64996B8C4662449A63DB6B002B29
:1030A00028D1E3001C1BA300EB1828331978280053
:1030B00005F077F9E4E56918CA8D896BFFF7A4FC80
:1030C000C4E75022825ADB00D3181B18134A9446D7
:1030D00063441B889B059B0DE100091B8A001100BE
:1030E000AA181364002BB1D069180A8E896BFFF7F8
:1030F0008BFCABE7E1000C1BA100691828310978B3
:103100002800FFF795FCBBE5002003B0F0BDC046EA
:10311000020400000F0F000080C0FFFF0604000043
:1031200070B5040044230268D35A1BB2002B46DB5F
:10313000236844229A5A520544D4236844229A5A56
:10314000520404D544215A5A344802405A52236842
:1031500044229A5A920404D544215A5A30480240D3
:103160005A52236844229A5AD20438D423684422FB
:103170009A5A120513D54422995A2A480140995265
:1031800020684023C15A08252943C1522068C15AEA
:1031900004252943C15223689B5ADB0431D5236897
:1031A00044229A5A920530D4236844229A5AD2056E
:1031B00004D544215A5A1C4802405A5270BDFFF7A8
:1031C00059FDB5E744215A5A184802405A52200086
:1031D00005F0FBF800212000FEF78EFFADE740224E
:1031E000995A042081439952114B21688B52200037
:1031F00005F00EF9216844228B5A0E4803408B5289
:10320000B4E7200005F0F2F8C9E744215A5A0A4809
:1032100002405A52200005F0D1F8C5E7FFBFFFFF7A
:10322000FFDFFFFFFFF7FFFFFFFEFFFFFFFBFFFFDB
:1032300000BDFFFFFFEFFFFFFFFDFFFF10B50C0616
:103240000FD57F242140CC00611A8C00283400194E
:10325000002A0DD001228272C3801B0C0381002042
:1032600010BDCC00611A8C000934FF340019EFE75F
:1032700082728380F3E7000070B582B004000368B7
:10328000DB072BD5B34B5A680C231340042B1DD0FE
:10329000B04B5A680C231340082B0ED06368012BE7
:1032A00041D0002B56D1AB4B1A68AB490A401A608B
:1032B0001A68AA490A401A603BE0A64B5B68C02224
:1032C00052021340802252029342E7D1A14B1B6865
:1032D0009B0303D56368002B00D139E223689B0769
:1032E00078D59C4B5B680C221A4262D0994B5A6885
:1032F0000C231340082B53D0E368002B00D18BE044
:10330000944A136801210B431360FDF7FFFF05008A
:10331000904B1B689B0776D4FDF7F8FF401B0228F3
:10332000F6D9032017E28B4A116880235B020B4316
:1033300013606368002B25D0FDF7E8FF0500854B7F
:103340001B689B03CAD4FDF7E1FF401B6428F6D934
:10335000032000E2052B09D07E4B1A687E490A4003
:103360001A601A687D490A401A60E2E7794B1968C9
:103370008022D2020A431A601968802252020A434C
:103380001A60D6E7FDF7C2FF0500724B1B689B036E
:10339000A4D5FDF7BBFF401B6428F6D90320DAE172
:1033A0006C4B5B68C022520213408022120293428F
:1033B000A2D1684B1B689B0704D5E368012B01D0A1
:1033C0000120C8E163490B68F82293432269D200C7
:1033D00013430B6023681B0744D5E369002B2ED0F1
:1033E0005C4A536A01210B435362FDF78FFF0500CE
:1033F000584B5B6A9B0735D4FDF788FF401B0228BA
:10340000F6D90320A7E153490B68F82293432269B8
:10341000D20013430B60DDE74E4A136801218B4352
:103420001360FDF773FF05004A4B1B689B07D1D55E
:10343000FDF76CFF401B0228F6D903208BE1454ABB
:10344000536A01218B435362FDF760FF0500414B36
:103450005B6A9B0706D5FDF759FF401B0228F6D98A
:10346000032078E123685B0700D47FE0394BDB69F8
:10347000DB001DD4374AD169802040050143D1616A
:10348000D36903400193019B0125354B1B68DB0584
:1034900010D5A368012B21D0002B36D12D4B1A6AF1
:1034A00001218A431A621A6A03318A431A621AE0B6
:1034B0000025EAE72A4A116880235B000B4313606A
:1034C000FDF724FF0600264B1B68DB05E1D4FDF762
:1034D0001DFF801B6428F6D903203CE11D4A136AB6
:1034E00001210B431362A368002B24D0FDF70EFFCC
:1034F0000600184B1B6A9B0736D4FDF707FF801B9D
:10350000184B9842F5D9032025E1052B09D0114B22
:103510001A6A01218A431A621A6A03318A431A62BB
:10352000E1E70C4B1A6A04210A431A621A6A03394A
:103530000A431A62D7E7FDF7E9FE0600054B1B6A4E
:103540009B0711D5FDF7E2FE801B064B9842F5D98B
:10355000032000E100100240FFFFFEFFFFFFFBFF22
:103560000070004088130000012D3AD02368DB066C
:1035700010D56369012B3AD0053358D1784A536B83
:1035800004218B435363536BF4318B43A169C9000E
:103590000B43536323689B0600D482E0704B5A6848
:1035A0000C2313400C2B60D06D4B5A680C23134036
:1035B000082B53D0236A002B60D0694A516B8023BB
:1035C0005B020B435363FDF7A1FE0500644B5B6B8D
:1035D000DB0366D4FDF79AFE401B0228F6D90320D0
:1035E000B9E05F4AD3695F490B40D361BEE75C4BEA
:1035F0005A6B04210A435A635A6B03390A435A63CC
:10360000FDF784FE0500564B5B6B9B0706D4FDF768
:103610007DFE401B0228F6D903209CE050494B6BED
:10362000F8229343A269D20013434B63B2E74C4B99
:103630005A6B04210A435A635A6B03398A435A630B
:10364000FDF764FE0500464B5B6B9B07A2D5FDF7BB
:103650005DFE401B0228F6D903207CE0404B5B68EE
:10366000C022520213409342A4D13D4B5B6BDB035B
:1036700017D5236A012B14D001206CE0384A536B14
:1036800039490B405363FDF741FE0500344B5B6B3A
:10369000DB0306D5FDF73AFE401B0228F6D90320CE
:1036A00059E0636A002B55D02D4A51680C220A401C
:1036B000082A52D0022B12D0294A13682B490B40FA
:1036C0001360FDF723FE0400254B1B689B013DD5CD
:1036D000FDF71CFE001B0228F6D903203BE0204A20
:1036E000136822490B401360FDF710FE05001C4BC8
:1036F0001B689B0106D5FDF709FE401B0228F6D981
:10370000032028E0164BDA6A0F218A43216B0A4313
:10371000DA625A6816490A40E16AA06A01430A431C
:103720005A601968802252040A431A60FDF7EEFDC0
:1037300004000B4B1B689B0106D4FDF7E7FD001B43
:103740000228F6D9032006E0002004E0002002E071
:10375000012000E0002002B070BD0120FBE7C04660
:1037600000100240FFFFFFEFFFFFFEFFFFFFFFFE25
:10377000FF7FC2FF30B589B004AA1F4B180032C8C2
:1037800032C2110002680A606A46103313CB13C2BA
:103790001B681360194B5A680C231340082B04D084
:1037A0000C2B26D0164809B030BD910C0F231940C0
:1037B00004A8445C1149C96A0B406946C95CC0232E
:1037C0005B021A4080235B029A4208D0C0235B024E
:1037D0009A4209D00A48FCF797FC6043E3E708489F
:1037E000FCF792FC6043DEE70648FCF78DFC604383
:1037F000D9E70448D7E7C046D89100080010024036
:1038000000127A00006CDC0270B505000C00594B08
:103810001A68012313408B420BD256490B680122D0
:10382000934323430B600B681A40A24201D001204E
:1038300070BD2B689B0706D54F4A5368F0218B4318
:10384000A9680B4353602B68DB0763D56B68012BBA
:1038500009D0022B28D0032B2CD0474A126892079C
:1038600005D40120E4E7444A126892037FD5424917
:103870004A680320824313434B60FDF747FD06006F
:103880006B68012B1CD0022B28D0032B34D03A4B71
:103890005B680C221A423DD0FDF738FD801B374B88
:1038A0009842F4D90320C3E7334A12689201DED468
:1038B0000120BDE7304A526BD203D8D40120B7E7CC
:1038C0002D4B5A680C231340042B23D0FDF71EFD0B
:1038D000801B2A4B9842F3D90320A9E7264B5A684C
:1038E0000C231340082B15D0FDF710FD801B234B34
:1038F0009842F3D903209BE71F4B5A680C231340CF
:103900000C2B07D0FDF702FD801B1C4B9842F3D90E
:1039100003208DE7174B1A6801231340A3420BD9EC
:1039200014490B680122934323430B600B681A4030
:10393000A24201D001207BE72B685B0706D50E4A27
:1039400053680F490B40E9680B435360FFF712FFC0
:10395000094B5A6812090F2313400A4AD35CD84016
:10396000094B18600020FDF7AFFC002060E7012044
:103970005EE7C046002002400010024088130000AD
:10398000FFF8FFFF8092000838010020014B186803
:103990007047C0463801002010B5FFF7F7FF044B11
:1039A0005A68120A07231340024AD35CD84010BD5C
:1039B000001002409092000870B582B004000368C5
:1039C000DB0335D54B4BDB69DB0066D4494AD16953
:1039D000802040050143D161D36903400193019BDD
:1039E0000125454B1B68DB0559D5424B1B6AC0229C
:1039F0009200134013D061680A409A420FD03D4BA9
:103A0000186A3E4A02401E6A802149023143196207
:103A1000196A3B4E314019621A62C30753D4354AC2
:103A2000136A36490B4061680B431362012D59D06C
:103A30002368DB0706D52F4A136B03218B43A1684C
:103A40000B43136323689B0706D52A4A136B2D4942
:103A50000B40E1680B43136323689B0606D5254A98
:103A6000136B10218B4321690B43136323689B0362
:103A700006D5204A136B80218B43A1690B43136346
:103A800023685B0533D51B4A136B40218B43616967
:103A90000B431363002002B070BD0025A1E7164A56
:103AA000116880235B000B431360FDF72FFC0600B9
:103AB000114B1B68DB0598D4FDF728FC801B64289C
:103AC000F6D90320E7E7FDF721FC0600094B1B6A46
:103AD0009B07A4D4FDF71AFC801B0B4B9842F5D929
:103AE0000320D8E7D36909490B40D361A0E7002040
:103AF000D1E7C0460010024000700040FFFCFFFF0D
:103B0000FFFFFEFFFFFFFCFF88130000FFFFFFEF3A
:103B1000104B1969802212050A431A611A690E496D
:103B20000A401A61026843681A4383681A43C368EB
:103B30001343026912041A43084B5A601A68084971
:103B40000A40416909020A431A601A6860210A435F
:103B50001A60704700100240FFFFFFF7006C004042
:103B6000FFC0FFFFF8B506000C0017001D003EE087
:103B7000002D05D0FDF7CAFB069BC01AA84236D31C
:103B800032685368E0218B43536082235B00726884
:103B90009A420CD080239B01B26A9A4216D05D23D0
:103BA0000122F254013B0022F254032027E0B368C3
:103BB00080221202934203D08022D2009342E9D1A4
:103BC0003268136840218B431360E3E7326813685F
:103BD0000B490B4013603268116880239B010B4333
:103BE0001360DCE70123BB4208D06B1CC0D13368F3
:103BF0009B682340A342F5D00023F4E70020F8BDE2
:103C0000FFDFFFFFF0B583B007000C0015001E00BA
:103C100001E0731C10D13A6893682340AB4245D051
:103C2000C023DB009C42F4D1002DF2D1137BDBB228
:103C30006A46D371D379ECE7002E05D0FDF766FB19
:103C4000089BC01AB042E6D33A685368E0218B4320
:103C5000536082235B007A689A420CD080239B01D8
:103C6000BA6A9A4216D05D230122FA54013B00221F
:103C7000FA5403201BE0BB6880221202934203D057
:103C80008022D2009342E9D13A68136840218B43E5
:103C90001360E3E73A68136806490B4013603A681B
:103CA000116880239B010B431360DCE7002003B005
:103CB000F0BDC046FFDFFFFF70B582B004000D000D
:103CC0001600C02100922B0000224901FFF79AFF45
:103CD000002818D100962B00002280212000FFF739
:103CE00041FF002816D1C02100962B000022C900F8
:103CF0002000FFF787FF00280AD0236E20221343FD
:103D00002366032004E0236E20221343236603204E
:103D100002B070BD236E2022134323660320F7E711
:103D200010B5041E5ED0002383625D33C35C002B9C
:103D30004CD05D230222E2542268136840218B4359
:103D40001360E368E022D200934245D90022F021BB
:103D500009018B4205D0E021C9008B4201D000212E
:103D6000A162216B002905D1E021C9008B4236D91F
:103D7000022323636368A1680B4321690B436169D4
:103D80000B4380218900A06901400B43E1690B438B
:103D9000216A0B432168A06A03430B60618B0423F3
:103DA0000B40616A0B43616B0B43E1680B43216875
:103DB00013434B602268D3690B490B40D361002346
:103DC00023665D330122E254002010BD5C330022E3
:103DD000C25403F0F3FFACE780225201B7E701239E
:103DE0002363C7E70120F0E7FFF7FFFFF0B585B0D9
:103DF00004000D0016001F005C23C35C012B00D1E2
:103E0000D4E05C230122C254FDF780FA01905D23C7
:103E1000E35C012B08D002205D230122E254013B28
:103E20000022E25405B0F0BD002D00D1B4E0002E18
:103E300000D1B3E05C330322E25400232366A56380
:103E4000A687E68723644132A3520232A352236538
:103E5000E36480231B02A2689A421CD023681A687C
:103E6000520603D41A6840210A431A60E023DB009B
:103E7000E2689A4233D96368002B03D0E38F9BB288
:103E8000012B14D123682A88DA600235E38F013BC5
:103E90009BB2E3870BE0226811688023DB010B43B0
:103EA0001360DBE7002F00D17AE07B1C0FD1E38F9A
:103EB0009BB2002B58D023689A689207F2D52A88C3
:103EC000DA600235E38F013B9BB2E387EFE7FDF752
:103ED0001DFA019BC01AB842E9D303209CE763682E
:103EE000002B03D0E38F9BB2012B21D1E38F9BB238
:103EF000012B08D923682A88DA600235E38F023B58
:103F00009BB2E38714E02B7822681373E38F013BA5
:103F10009BB2E38701350BE02A781A73E38F013BEC
:103F20009BB2E387013503E0002F3BD07B1C13D10C
:103F3000E38F9BB2002B17D023689A689207F3D5C2
:103F4000E28F92B2012AE7D92A88DA600235E38F3C
:103F5000023B9BB2E387EBE7FDF7D8F9019BC01A60
:103F6000B842E5D3032057E7019A39002000FFF754
:103F7000A3FE002801D020232366A368002B06D1CE
:103F800003932368DA6803929B680393039B236E71
:103F9000002B09D100203FE701203DE701203BE74E
:103FA000032039E7032037E7012035E7022039E70E
:103FB00030B5036A012293430362036A426884694D
:103FC0007325AC430D682C430225AB438D682B430E
:103FD000144DA84208D0144DA84205D0134DA84254
:103FE00002D0134DA84205D10825AB43CD682B4321
:103FF0000425AB430B4DA84208D00B4DA84205D079
:104000000A4DA84202D00A4DA84205D1094D2A40C6
:104010004D692A438D692A43426084614A6842633C
:10402000036230BD002C01400040014000440140CB
:1040300000480140FFFCFFFF70B5036A194A1340B6
:104040000362036A4268C4697325AC430E68264361
:10405000154C23408C6824022343144CA04219D0F1
:10406000124CA04208D0124CA04205D0114CA042E4
:1040700002D0114CA04207D1104C14404A691201E1
:1040800022438C6925012A434260C6614A68C263A3
:10409000036270BD0A4C1C40CB681B022343094CD1
:1040A0002340DDE7FFFEFFFFFFFDFFFF002C014087
:1040B000004001400044014000480140FFCFFFFFA5
:1040C000FFF7FFFFFFFBFFFF30B5036A134A134002
:1040D0000362026A4368C469114D2C400D682D02C9
:1040E0002C43104D15408A6812032A430E4DA842F6
:1040F00008D00E4DA84205D00D4DA84202D00D4D5E
:10410000A84204D10C4D2B404D69AD012B434360B7
:10411000C4614B680364026230BDC046FFEFFFFF1D
:10412000FF8CFFFFFFDFFFFF002C0140004001403C
:104130000044014000480140FFBFFFFF30B5036A63
:10414000046A0125AC4304628469EF35AC43120173
:1041500022430A24A34319438261016230BD000057
:1041600030B5036A1024A34303628469036A054DD2
:104170002C4012032243A024A34309011943826166
:10418000016230BDFF0FFFFF836870229343072257
:1041900011431943816070470368214A904206D059
:1041A0008022D205904202D01E4A904203D1702252
:1041B00093434A6813431A4A904212D08022D20590
:1041C00090420ED0174A90420BD0174A904208D026
:1041D000164A904205D0164A904202D0154A9042A3
:1041E00003D1154A1340CA681343802293434A6996
:1041F000134303608B68C3620B688362084B984269
:1042000008D00A4B984205D0094B984202D0094B7E
:10421000984201D10B690363012343617047C04693
:10422000002C0140000400400020004000400140FC
:104230000044014000480140FFFCFFFF70B5041E30
:1042400014D03D23C35C002B0AD03D2502236355C7
:10425000211D2068FFF7A0FF01236355002070BDDA
:104260003C330022C25403F00FFEEEE70120F6E7D4
:1042700070B5041E14D03D23C35C002B0AD03D252D
:1042800002236355211D2068FFF786FF0123635534
:10429000002070BD3C330022C25403F039FEEEE72B
:1042A0000120F6E7F0B5C64600B504000D00002871
:1042B00043D03D23C35C002B39D03D260223A355B8
:1042C000210004C993680720834393602068FFF7A7
:1042D00063FF216888688A690F6A2B6818438046E3
:1042E000174B1340AA691202A86802431A43154BE0
:1042F0001A40EB691B02E86803431A432B691B0150
:10430000286A000303431343AA2297436A686D692E
:104310002D012A433A434046886021688B61236817
:104320001A620123A355002004BC9046F0BD3C3323
:104330000022C25403F074FDBFE70120F4E7C04639
:10434000FCFCFFFF0303FFFF70B5036A10229343D9
:104350000362036A42688469174D2C400D682D0280
:1043600025432024A3438C6824012343134CA042FB
:1043700019D0124CA04208D0114CA04205D0114CCB
:10438000A04202D0104CA04207D1104C14404A6900
:10439000920022438C69A6003243426085614A68DC
:1043A0008263036270BD8024A3431C00CB681B01A1
:1043B00023434024A343DCE7FF8CFFFF002C014094
:1043C000004001400044014000480140FFF3FFFF6E
:1043D00070B504000D003C23C35C012B69D03C2365
:1043E0000121C15401330131C154042A37D019D9F4
:1043F000082A4AD00C2A2AD129000068FFF764FE57
:104400002268D16980231B010B43D3612268D369E1
:1044100029490B40D3612168CB692A6912021343F1
:10442000CB6114E0002A12D129000068FFF7C0FD1B
:104430002268936908210B439361226893690439C8
:104440008B4393612268936929690B4393613D23F0
:104450000122E254013B0022E254002070BD2900F9
:104460000068FFF771FF2268916980231B010B43ED
:1044700093612268936910490B40936121688B69AD
:104480002A69120213438B61E1E729000068FFF7F4
:10449000D3FD2268D36908210B43D3612268D36915
:1044A00004398B43D3612268D36929690B43D361F3
:1044B000CDE70220D2E7C046FFFBFFFF30B584689E
:1044C000034D2C401B021A4311432143816030BD30
:1044D000FF00FFFF10B504003C23C35C012B00D19B
:1044E0007FE03C230122C25401330132C2540268EE
:1044F00093683D48034093600B68402B5DD010D912
:10450000702B43D020D8502B4DD0602B36D1CA68A9
:1045100049682068FFF724FE60212068FFF734FE19
:104520002CE0102B53D008D9202B55D0302B25D17F
:1045300030212068FFF728FE20E0002B1ED100214B
:104540002068FFF721FE19E080225201934210D02B
:1045500080229201934211D1CB684A688968206811
:10456000FFF7ACFF226891688023DB010B43936067
:1045700004E02268936807218B4393603D23012266
:10458000E254013B0022E254002010BDCB684A688F
:1045900089682068FFF792FF2268936877218B4330
:1045A0000B439360EAE7CA6849682068FFF7C6FDD5
:1045B00050212068FFF7E8FDE0E7CA6849682068F5
:1045C000FFF7BCFD40212068FFF7DEFDD6E7102194
:1045D0002068FFF7D9FDD1E720212068FFF7D4FD3F
:1045E000CCE70220D1E7C0468800FFFF10B50124C8
:1045F0008C40036AA3430362036A8A401A4302623F
:1046000010BD000010B5040001220068FFF7EEFFA6
:1046100023680C4A934208D00B4A934205D00B4AB8
:10462000934202D00A4A934204D1596C802212026A
:104630000A435A642268136801210B431360002067
:1046400010BDC046002C0140004001400044014024
:104650000048014010B50400002916D0042925D0D7
:10466000012200210068FFF7C1FF01220421206818
:10467000FFF7BCFF2268D36802210B43D360226896
:10468000D36802310B43D36009E0012200210068A6
:10469000FFF7ACFF2268D36802210B43D360226886
:1046A000136801210B431360002010BD0122042177
:1046B0000068FFF79BFF2268D36804210B43D36097
:1046C000EDE7F0B53C23C35C012B1ED03C22012555
:1046D00085543D2402230355066873687027BB4345
:1046E0007360066873680F683B4373600668B3685D
:1046F0008027BB43B3600668B36849680B43B36067
:104700000555002383540020F0BD0220FCE7000083
:1047100070B53C23C35C012B28D03C220125855475
:104720003D2402230355124BCE6833408E68334339
:10473000104E33404E6833430F4E33400E683343C0
:104740000E4E33400E6933430D4E33404E693343B2
:104750000C4E334089690B430B4E33400B430168C9
:104760004B64055500238354002070BD0220FCE7F4
:10477000FFFCFFFFFFFBFFFFFFF7FFFFFFEFFFFF68
:10478000FFDFFFFFFFBFFFFFFF7FFFFF0268136830
:10479000C0218B43136069232022C254704700005C
:1047A0000268136806490B4013600268936823315E
:1047B000FF318B4393606A232022C2547047C04666
:1047C000DFFEFFFF30B56A23C35C202B5AD10029DE
:1047D0005AD0002A5AD0836880246401A34218D09A
:1047E0006824045D012C53D06824012505554165DA
:1047F00058214252023142528022520193420FD03C
:10480000002B1CD10369002B15D15C33FF22C2524F
:1048100019E00469002CE3D1CC07E1D5012032E096
:104820000369002B03D15C331A4AC2520BE05C23AC
:10483000FF22C25207E05C237F22C25203E08022A3
:104840005205934213D00023C3666A222221815469
:10485000023A83540268936821390B4393600268DB
:10486000116890235B000B43136000200BE0036989
:10487000002B03D15C337F22C252E4E75C233F224A
:10488000C252E0E7022030BD0120FCE70120FAE738
:104890000220F8E7FF01000070B504006920205CE9
:1048A00020283ED100293ED0002A3ED080235B0143
:1048B000A06898422ED06823E35C012B37D068268D
:1048C0000123A355E1644F33E2520233E252002543
:1048D000E56617332121E154236E16499962236E50
:1048E0001549D962236E15491963236E5D632168EA
:1048F000283113000A00E16C206EFDF7B3F823683D
:1049000040221A62A5552268936880210B43936068
:10491000002007E02369002BCDD1CB07CBD50120A8
:1049200000E0022070BD0120FCE70120FAE7022030
:10493000F8E7C04643490008754900088149000866
:10494000704710B5436A0268126892060DD452226D
:104950000021995219688A68802082438A601A6807
:10496000136840210B43136010BD1800FFF7E8FFE8
:10497000FAE7704710B5406AFFF7FBFF10BD7047BC
:1049800010B5446A6923E35C212B0BD06A23E35CF6
:10499000222B12D0E36E10221343E3662000FFF7B0
:1049A000EEFF10BD23689B681B06EFD55223002243
:1049B000E2522000FFF7EAFEE8E723689B685B0607
:1049C000E8D55A230022E2522000FFF7E9FEE1E792
:1049D00010B5406A00235A228352083A8352FFF7E7
:1049E000CEFF10BD70B504008368026913434269AD
:1049F0001343C269134301680A68734802401343B2
:104A00000B602268536871490B40E1680B435360A7
:104A1000A269236A1A4321688B686D4803401343D7
:104A20008B6025686B4B9D4226D06B4B9D4237D0E7
:104A30006A4B9D4256D06A4B9D424FD01023802234
:104A40001202E16991424FD0022B00D1A0E000D8C0
:104A50008EE0042B00D1A7E0082B00D0B2E0616803
:104A6000480880231B029C466044FBF74DFB000472
:104A7000000CE860002060E05A4B1A6B03231340DF
:104A8000012B09D0002B05D0022B07D0032B27D0F8
:104A90001023D4E70023D2E70423D0E70823CEE78E
:104AA000504B1B6BC0229202134080225202934251
:104AB0000ED009D98022920293420BD0C0229202DA
:104AC000934209D10223BAE7002B05D10023B6E7B0
:104AD0000423B4E70823B2E71023B0E70023AEE7CE
:104AE0000223ACE70023AAE7022B27D00FD9042B1F
:104AF0002FD0082B39D16368580880235B029C466D
:104B000060446168FBF700FB83B200200CE0002BDF
:104B10002BD1FEF741FF400063685B08C018616855
:104B2000FBF7F2FA83B200200F22190091435B10C9
:104B3000083A13400B432268D36070BD636858087D
:104B4000294B9C4660446168FBF7DEFA83B2002083
:104B5000EAE7FEF70FFE400063685B08C018616873
:104B6000FBF7D2FA83B20020DEE701200023DBE767
:104B7000002B27D1FEF710FF63685B08C01861683F
:104B8000FBF7C2FA23680004000CD8600020D4E7C9
:104B900061684808154B9C466044FBF7B5FA000471
:104BA000000CE8600020C8E7FEF7E4FD63685B08DE
:104BB000C0186168FBF7A8FA23680004000CD860ED
:104BC0000020BAE70120B8E7F369FFEFFFCFFFFF4E
:104BD000FFF4FFFF0038014000440040004800405F
:104BE000004C0040001002400024F40000127A0043
:104BF000436ADB0706D5026853682C490B40816A7B
:104C00000B435360436A9B0706D5026853682849E3
:104C10000B40C16A0B435360436A5B0706D50268C9
:104C2000536824490B40016B0B435360436A1B07D5
:104C300006D50268536820490B40416B0B43536013
:104C4000436ADB0606D5026893681C490B40816BFA
:104C50000B439360436A9B0606D502689368184924
:104C60000B40C16B0B439360436A5B060BD5026834
:104C7000536814490B40016C0B43536080235B0362
:104C8000026C9A420AD0436A1B0606D50268536832
:104C90000D490B40816C0B435360704702685368A9
:104CA0000A490B40416C0B435360ECE7FFFFFDFFEB
:104CB000FFFFFEFFFFFFFBFFFF7FFFFFFFEFFFFF99
:104CC000FFDFFFFFFFFFEFFFFFFFF7FFFFFF9FFF8C
:104CD000F0B5C64600B506000C0017009846069DC4
:104CE0003368DB6923401B1B5A425341BB421ED130
:104CF0006B1CF5D0002D05D0FCF708FB4346C01A0D
:104D0000A842EDD9326813680B490B401360326832
:104D10009368A331FF318B43936020236922B354FE
:104D20000132B35448330022F254032000E0002043
:104D300004BC9046F0BDC0465FFEFFFFF0B585B0F5
:104D400004000E0017001D006923C35C202B59D1FD
:104D500000295AD0002A5AD080235B0182689A42E7
:104D600013D06823E35C012B53D068230122E25463
:104D70000023E36669332032E254FCF7C7FA03905C
:104D80005023E7520233E7520AE00369002BE8D1CF
:104D9000CB07E6D5012036E033782268138501364B
:104DA0005223E35A9BB2002B1CD05222A35A013B40
:104DB0009BB2A3520095039B002280212000FFF7A5
:104DC00087FF002827D180235B01A2689A42E3D1A4
:104DD0002369002BE0D13388DB05DB0D22681385C6
:104DE0000236DDE70095039B002240212000FFF7FB
:104DF0006FFF002811D169232022E254013B0022D9
:104E0000E25400E0022005B0F0BD0120FBE70120E4
:104E1000F9E70220F7E70320F5E70320F3E70000B6
:104E200030B583B004000023C366FCF76FFA0500B9
:104E30002368194A93420DD0184A93420AD020237E
:104E40006922A3540132A35448330022E2540020C3
:104E500003B030BD1B681B0710D423681B685B07B9
:104E6000EDD580210E4B00932B000022C9032000BA
:104E7000FFF72EFF0028E2D00320E9E78021084B4E
:104E800000932B00002289032000FFF721FF002858
:104E9000E3D00320DCE7C046003801400044004076
:104EA000FFFFFF0110B5041E30D06923C35C002B47
:104EB00022D069232422E2542268136801218B4303
:104EC00013602000FFF78EFD012814D0636A002BC9
:104ED00018D1226853680E490B40536022689368CA
:104EE0002A218B4393602268136829390B4313608E
:104EF0002000FFF795FF10BD68330022C25403F075
:104F0000D7F8D6E72000FFF773FEE2E70120F2E7CB
:104F1000FFB7FFFF6923C35C212B2FD13133C35A65
:104F20009BB2002B11D080235B0182689A4218D07B
:104F3000C36C5A1CC2641B78026813855222835AC0
:104F4000013B9BB28352002019E002681368802164
:104F50008B4313600268136840390B4313600020D1
:104F60000DE00369002BE3D1C36C1B88DB05DB0D6F
:104F700002681385C36C0233C364DFE70220704705
:104F800010B50268136840218B4313606923202207
:104F9000C254FFF7D5FC002010BD000010B55C2303
:104FA000C25A0E33C35C222B32D103689B8C9BB256
:104FB0008021490184688C420ED0D2B2416D4C1CD4
:104FC000446513400B705A22835A013B9BB28352B3
:104FD000002B0BD0002021E001690029EDD1134006
:104FE000426D1380436D02334365ECE7026813683A
:104FF0000B490B401360026893682331FF318B43E8
:1050000093606A232022C25402F0FCFD002005E0D8
:105010000268936908210B439361022010BDC046CA
:10502000DFFEFFFF70B504000168CB6908680F223E
:105030001A4003D19D0601D585065BD48D68002AF0
:105040006ED001222A4003D190267600304267D0EC
:10505000DD0706D5C50504D501250D62E16E29439E
:10506000E166990708D5002A06D0216802250D625D
:10507000E16E02352943E166590708D5002A06D0BA
:10508000216804250D62E16E023D2943E16619079E
:1050900009D5810601D4002A05D0226808211162B1
:1050A000E26E0A43E266E26E002A45D09B0601D515
:1050B000830623D4E36E1B0703D423689B685B0637
:1050C00028D52000FFF76CFB23689A6852061DD58F
:1050D0009A6840218A439A60636E002B12D0214A5D
:1050E0005A63606EFCF7F9FC002825D0606E436BB4
:1050F000984721E02000FFF751FF1DE02000FFF757
:105100004DFFD7E72000FFF73AFC15E02000FFF73E
:1051100036FC11E02000FFF732FC0023E3660BE0D1
:10512000DA0201D56A0208D41A0601D5020610D4A3
:105130005B0601D5430610D470BD80235B030B6270
:1051400020236922A3540132A354200000F00CF85C
:10515000F2E72000FFF7DEFEEEE72000FFF710FF8A
:10516000EAE7C046D1490008704786239B00C35830
:10517000002B05D085229200002199500020704715
:105180000220FCE710B586239B00C4580433C358A3
:10519000002B0DD080229200A05CFF2808D09B68D5
:1051A000044AA25C2100984780239B00FF22E2541E
:1051B000002010BD01020000432303800048704717
:1051C0000000002043230380014844307047C0465C
:1051D0000000002043230380014808307047C04688
:1051E000800000200A23038001484C307047C046ED
:1051F0008000002070B504008626B600855903F0B3
:10520000C4F983239B00E850A359002B0BD08723BC
:105210009B00E358DB6883229200A918083AA8583B
:105220009847002070BD0220FCE7000070B5050023
:105230000C0086239B00C6580978B93BFF3B0B4006
:105240002AD0202B0AD1E288002A09D187239B008B
:10525000C3589B686078002221009847002070BDE9
:1052600049B200290CDAFD33FF33C3589B686078DC
:1052700031009847E2883100280000F0DCFCEDE7BF
:10528000627880239B00F254E288074BF254E28854
:10529000310000F0E6FCE1E763780A2BDED1012261
:1052A000024900F0C8FCD9E7010200008C0300208D
:1052B00070B50400812103F018F90121200003F0EA
:1052C00014F98221200003F010F986239B00E35893
:1052D000002B0BD087239B00E3585B6898478625FB
:1052E000AD00605903F05CF900236351002070BDEC
:1052F00070B50400037C002B34D18025AD002B0059
:105300000222812103F0E5F82B0002220121200076
:1053100003F0DFF8082303228221200003F0D9F8EC
:105320008720800003F038F9050086239B00E050B9
:1053300000282DD00433E3581B68984700238522AA
:105340009200AB500432AB50237C002B16D081234B
:105350009B00EA58C53BFF3B0121200003F00CF9FC
:10536000002070BD40230222812103F0B2F84023C7
:1053700002220121200003F0ACF8CBE78033143A7D
:10538000AA589B000121200003F0F6F80020E8E76E
:105390000120E6E7002904D087239B00C1500020AC
:1053A00070470220FCE786239B00C35882208000C0
:1053B0001950842189005A500020704786239B0091
:1053C000C258143BD1500020704710B586239B0073
:1053D000C258002A16D0037C002B09D081239B00E1
:1053E000D258C53BFF3B012103F0C6F8002010BD99
:1053F00080338121890052589B00012103F0BCF8C1
:105400000020F4E70220F2E710B5002816D085232B
:105410009B00C358002B03D085239B000024C4505D
:10542000002902D084239B00C150FE235B00012190
:10543000C154027003F002F8002010BD0220FCE706
:10544000002904D085239B00C15000207047022012
:10545000FCE710B503F034F8002010BD10B585232B
:105460009B00C358002B07D01B689847002801D128
:10547000002010BD0220FCE70220FAE710B58523CA
:105480009B00C3585B689847002010BD70B50400AE
:1054900082239B00C518280000F02CF9FA235B003A
:1054A0000122E250124BE25A163BE2501033E15C0B
:1054B000EA3BFF3B0B40012B0FD0002B07D0022B08
:1054C00010D07F239943200003F018F803E029004F
:1054D000200000F0B3FA002070BD2900200000F089
:1054E000D1FAF8E72900200000F0EBFAF3E7C04614
:1054F0000E02000010B504001300002929D1FA2281
:1055000052008258032A01D0002010BD421DFF32F4
:105510009168D26891420FD885239B00C3581B69BC
:10552000002B05D0FE225200825C032A00D198474E
:10553000200000F0AEFBE7E7891A0530FF308160FC
:105540008A4200D90A0092B21900200000F099FBAB
:10555000DAE785239B00C3589B69002BD4D0FE2239
:105560005200825C032ACFD19847CDE770B5040082
:10557000130000294ED1FA2252008258022A06D086
:1055800080239B00E35C012B3FD0002070BDC269EB
:10559000056AAA421ED8866929003000FAF73AFE49
:1055A000002906D1B54204D8FC235B00E3589E4293
:1055B0001DD385239B00E358DB68002B06D0FE2219
:1055C0005200A25C032A01D120009847200000F07D
:1055D0006CFBD5E7521BC26192B2190000F039FB97
:1055E000002300220021200002F0C6FFC8E70022AD
:1055F000200000F02EFBFC235B000022E250002381
:105600000021200002F0B8FFBAE780239B000022AF
:10561000E254BAE785239B00C3585B69002BB4D0E2
:10562000FE225200825C032AAFD19847ADE770B5E5
:10563000040040230022002102F04BFF4025882374
:105640005B00E550D03B00228021200002F041FFAA
:105650002562FE235B000122E2541C33E358002B39
:1056600006D085239B00E3585B682179200098478A
:10567000002070BD017400207047FE235B00C15CF8
:10568000FE22FF328154FA3AFF3AC254002070479A
:10569000FE23FF33C25C013BC2540020704710B5AB
:1056A000FE235B00C35C032B01D0002010BD8523CB
:1056B0009B00C358DB69002BF7D09847F5E7030040
:1056C000002002E00130C0B201331A78002AF9D17B
:1056D000704710B504004B88012B0AD181239B0031
:1056E0000122C2501033C3589B689847200000F035
:1056F000D0FA10BD0B7803704B7843708B78CA7862
:1057000012029B1843800B794A7912029B188380FE
:105710008B79CA7912029B18C380704710B50400B8
:10572000802102F0EBFE0021200002F0E7FE10BD18
:1057300030B583B004000D004A88130A072B00D946
:105740008EE09B004F49CB589F4684239B00C35853
:105750001B68007C6A46911D98476B4606331B8880
:10576000002B03D0EA88002A00D07EE003B030BDD1
:10577000037C002B09D185239B00C3589B6A6A4692
:10578000901D984702234370E7E785239B00C35889
:10579000DB6A6A46901D984702234370DDE7D2B268
:1057A000052A39D89200384B9B589F4684239B008A
:1057B000C3585B68007C6A46911D9847CDE78423F7
:1057C0009B00C3589B68007C6A46911D9847C4E7BC
:1057D00084239B00C358DB68007C6A46911D984770
:1057E000BBE784239B00C3581B69007C6A46911D5C
:1057F0009847B2E784239B00C3585B69007C6A46E4
:10580000911D9847A9E784239B00C3589B69007C9E
:105810006A46911D9847A0E72900FFF77FFFA5E79B
:10582000037C002B07D185239B00C3585B6B6A4622
:10583000901D984791E72900FFF770FF96E7037CDA
:10584000002B09D185239B00C3581B6B6A46901D12
:1058500098470723437080E72900FFF75FFF85E73C
:1058600029002000FFF75AFF80E7191C934200D956
:10587000111C8AB26B46D9800100200000F0DBF9D0
:1058800074E7C046F89100081892000870B504004B
:105890008B88002B22D1CB88002B1FD18B787F25C2
:1058A0001D40FE235B00C35C032B0FD0FF235B0076
:1058B000C554290002F04EFE200000F0EAF9002D48
:1058C00007D0FE235B000222E2540AE0FFF726FF26
:1058D00007E0FE235B000122E25402E02000FFF714
:1058E0001DFF70BD70B504000D008978284B19703C
:1058F00001290AD8FE235B00C35C022B09D0032BCD
:105900001ED02900FFF70AFF02E02900FFF706FF7B
:1059100070BD002911D04160FE235B000322C254F8
:10592000FFF79CFD022803D0200000F0B2F9EFE75A
:1059300029002000FFF7F2FEEAE700F0AAF9E7E706
:10594000002911D0436899421ED0D9B2FFF796FDC5
:105950000F4B197861602000FFF780FD02280ED000
:10596000200000F096F9D3E7FE235B000222C25428
:105970004160FFF783FD200000F08BF9C8E72900A4
:105980002000FFF7CBFEC3E700F083F9C0E7C04675
:105990008D03002010B5CB88012B09D1FE235B00BD
:1059A000C35C022B07D0032B0DD0FFF7B7FE01E03D
:1059B000FFF7B4FE10BD002383600100083101220F
:1059C00000F039F9F6E7011D012200F034F9F1E7A2
:1059D00010B5FE235B00C35C023BDBB2012B0ED88B
:1059E0000123C36081239B00C358002B01D00323F4
:1059F000C36001000C31022200F01DF910BDFFF759
:105A00008DFEFBE710B50400FE235B00C35C023B88
:105A1000DBB2012B0ED84B88012B0AD181239B00CE
:105A20000022C2501033C3589B689847200000F0F2
:105A300030F910BDFFF772FEFBE7000010B54B78A0
:105A4000092B19D89B000E4AD3589F46FFF770FECA
:105A5000002010BDFFF71AFFFAE7FFF743FFF7E753
:105A6000FFF798FFF4E7FFF7B3FFF1E7FFF731FE29
:105A7000EEE7FFF7C7FFEBE7FFF750FEE8E7C046AA
:105A80003092000870B504000D00FE235B00C35C7B
:105A9000032B13D10B79012B0DD885239B00C35801
:105AA0009B689847EB88002B01D0002070BD200038
:105AB00000F0EFF8F9E7FFF731FEF6E7FFF72EFE0B
:105AC000F3E770B505000C008A88D1B22078602316
:105AD0000340202B08D1F533FF33EB589B6821009E
